:100000000C94F0020C9437030C9437030C943703D0
:100010000C9437030C9437030C9437030C94370378
:100020000C9437030C9437030C9447240C941A2532
:100030000C948D1B0C9437030C9437030C943703EA
:100040000C9437030C9437030C9437030C94370348
:100050000C9437030C94F51B0C9437030C94370362
:100060000C9437030C9437030C9437030C94370328
:100070000C9437030C9437030C9437030C94370318
:100080000C9437030C9437030C9437030C94370308
:100090000C9437030C9437030C9437030C943703F8
:1000A0000C9437030C9437030C94370314001A0094
:1000B0000800150017001C0018000C0012001300A7
:1000C00004001600070009000A000B000D000E00D6
:1000D0000F0029001D611B64064319442A422C416C
:1000E00005451174107128721E001F0020002100A8
:1000F0002200230024002500260027003A003B00B0
:100100003C003D003E003F004000410042004300F3
:1001100001000100010001004C000100010001008C
:10012000010001001E021F022002210222022302FE
:100130002402250226022702440045000100010096
:100140000100010001000100010035000100010073
:100150000100010001000100010001000100010097
:10016000010001000100010001002D002E002F0000
:10017000300031002B0001000100010001003600B9
:100180003700380033003400010001000100010095
:10019000010001005000510052004F000100010019
:1001A0000100010001002D022E022F023002310257
:1001B0002B00010001000100010036023702380265
:1001C00033023402010001000100010001000100BE
:1001D0004A004B004E004D00B200B400B100B30025
:1001E000010001000100010001000100C35CC45CCA
:1001F000C55CC65C00000000C75CC85CC95CCA5C2A
:100200000100010001000100005C0100010001008B
:10021000010001006801F000B40078005A007F3F3F
:100220001F643214643214783C1E1E140A05000048
:1002300000000101010202030405050607090A0B7B
:100240000C0E0F1112141517191B1D1F2123252821
:100250002A2C2F313436393B3E414346494C4F52CC
:1002600055585A5D6164676A6D707376797C7F83D7
:1002700086898C8F9295989B9EA2A5A7AAADB0B3B4
:10028000B6B9BCBEC1C4C6C9CBCED0D3D5D7DADCD3
:10029000DEE0E2E4E6E8EAEBEDEEF0F1F3F4F5F6A9
:1002A000F8F9FAFAFBFCFDFDFEFEFEFFFFFFFFFF83
:1002B000FFFFFEFEFEFDFDFCFBFAFAF9F8F6F5F491
:1002C000F3F1F0EEEDEBEAE8E6E4E2E0DEDCDAD7CB
:1002D000D5D3D0CECBC9C6C4C1BEBCB9B6B3B0AD00
:1002E000AAA7A5A29E9B9895928F8C898683807CD5
:1002F000797673706D6A6764615D5A5855524F4CD8
:10030000494643413E3B393634312F2C2A28252398
:10031000211F1D1B1917151412110F0E0C0B0A09A2
:1003200007060505040302020101010000000000A8
:1003300000000001010101010101010102020202AC
:10034000020202020203030303030303030404047F
:100350000404040505050505060606060607070745
:1003600007080808080909090A0A0A0A0B0B0B0CF6
:100370000C0C0D0D0D0E0E0F0F0F10101111111290
:100380001213131414151516161717181819191A0D
:100390001A1B1C1C1D1D1E1F1F202021222223246E
:1003A000252526272728292A2B2B2C2D2E2F2F30A9
:1003B000313233343536363738393A3B3C3D3E3FBF
:1003C0004041424344464748494A4B4C4D4F5051A7
:1003D0005253555657585A5B5C5E5F606263646661
:1003E00067696A6C6D6E707173747678797B7C7EE8
:1003F0008081838486888A8B8D8F91929496989A37
:100400009B9D9FA1A3A5A7A9ABADAFB1B3B5B7B94C
:10041000BBBDBFC1C4C6C8CACCCFD1D3D6D8DADC25
:10042000DFE1E4E6E8EBEDF0F2F5F7FAFCFF0E03AE
:1004300054006F006D00610074006F000000200325
:100440003400300020005000650072006300650039
:100450006E007400200043006C0075006200000014
:100460000403090409026D00040100A0FA09040054
:1004700000010301010009211101000122400007D0
:1004800005810308000A09040100010301020009B3
:100490002111010001224D000705820308000A090D
:1004A00004020001030000000921110100012236AD
:1004B000000705830308000A090403000103000084
:1004C00000092111010001223900070584032000E1
:1004D000011201100100000008EDFE606001000142
:1004E00002000105010906A101050719E029E71528
:1004F0000025019508750181020508190129059556
:1005000005750191029501750391010507190029EF
:10051000F71500250195F875018102C005010980D4
:10052000A10185021601002603001A81002A83001A
:10053000751095018100C0050C0901A10185031604
:100540000100269C021A01002A9C02751095018167
:1005500000C005010902A1010901A1000509190155
:100560002905150025019505750181029501750381
:1005700081010501093009311581257F9502750832
:10058000810609381581257F950175088106050CBE
:100590000A38021581257F950175088106C0C005BE
:1005A000010906A101050719E029E71500250195B4
:1005B0000875018102950175088101050819012955
:1005C00005950575019102950175039101050719BE
:1005D0000029FF150026FF00950675088100C00060
:1005E00011241FBECFEFDAE0DEBFCDBF04B603FE9D
:1005F00027C08091980290919902A0919A02B0919F
:100600009B028730904BA740B04BD1F410929802D8
:100610001092990210929A0210929B0214BE84B713
:10062000877F84BF0FB6F894A89580916000886199
:1006300080936000109260000FBEE0E0F8E309953F
:1006400011E0A0E0B1E0E2E9FEE402C005900D9205
:10065000A433B107D9F722E0A4E3B1E001C01D92B1
:10066000A839B207E1F70E947F210C9447270C9428
:100670000000611107C0FC018281882331F085EE02
:100680000E94351080E090E0089585EE0E94ED1004
:10069000F9CF0895089581E00895089581E00895BF
:1006A0000C944B030E94E7132FEF84E39CE021504E
:1006B00080409040E1F700C000000C941B1CFF92AA
:1006C0000F931F93CF93DF938C01FC01C081D181E5
:1006D00080917901811127C082818823F9F0CE01B0
:1006E0000E947219F82E682FCE010E941A19BE01BD
:1006F0008F2D0E94E205EC01B8010E94500388236F
:1007000031F0B801CE010E94440881114CC180E053
:10071000DF91CF911F910F91FF900895CE010E941C
:100720004619F82EE4CFCE010E947219BE01E1CF26
:10073000F8018281882359F30E945203E8CFF8011F
:100740008281882321F30E946B0CE1CFF801828122
:100750008823E9F20E94610CDACFF80182818823B4
:10076000B1F20E945D0BD3CF882389F20E947C0BEB
:10077000CECF882361F20E94970BC9CFF801828106
:10078000882329F20E94CC0BC2CFF80182818823F2
:1007900009F4BDCF81E00E94E60BB9CFF801828158
:1007A000882309F4B4CF0E941B0A663071058105C5
:1007B000910538F00E941B0A68307105810591058A
:1007C00048F286E0E8CFF8018281882309F49FCFC0
:1007D0000E941B0A693071058105910540F00E9455
:1007E0001B0A6E3071058105910508F4B3CF89E0CD
:1007F000D2CFF8018281882309F489CF0E941B0A95
:10080000653171058105910540F00E941B0A673131
:1008100071058105910508F49DCF85E1BCCFF801F4
:100820008281882309F473CF88E1B5CFF8018281F2
:10083000882309F46CCF80E00E94122268CFF8016F
:100840008281882309F463CF82E0F6CFF8018281A8
:10085000882309F4F4C00E94A31A811102C00E94E7
:10086000821A0E94C01A90E090938A0280938902B3
:10087000FE01E350FC45E231F105C0F4EC5BFB4FB7
:10088000809189020C94F926620464046F04660462
:1008900068046A046C046E047104730475048004B3
:1008A000770479047B047D047F04820480918902AB
:1008B000816080938902809189020E94C41A0E94FB
:1008C000E71325CF8260F5CF8460F3CF8061F1CF4D
:1008D0008062EFCF8064EDCF8068EBCF846088606A
:1008E000E8CF8E7FE6CF8D7FE4CF8B7FE2CF8F7E08
:1008F000E0CF8F7DDECF8F7BDCCF8F77DACF8B7F22
:10090000877FD7CF87FB992790F921E0922790FB2B
:1009100087F9CFCFF8018281882361F010923901E5
:100920000E94BF1B909336018093350182E00E94A4
:100930001A11EDCE8091390181110FC080913501DE
:10094000909136010E94CB1B883C910530F486E2E1
:100950000E94351086E20E94ED1082E00E94211173
:10096000D6CE80913A0181110FC0809137019091CC
:1009700038010E94CB1B883C910530F487E20E942D
:10098000351087E20E94ED1080E2E8CF65E34DC0AC
:1009900080913401811105C069E2C9010E94311BB7
:1009A00047C065E3FACFCA3CFCE5DF0709F4E6CEB1
:1009B00008F072C0C33C9CE5D90709F4C0CE08F02A
:1009C00046C0C531FCE5DF07C0F4C2308CE5D8076E
:1009D00008F03CCFC1159CE5D90709F4A9CEC13078
:1009E000DC4541F5F8018281882309F490CE80919D
:1009F000F30181608093F3018ACEC531DC45D1F4E7
:100A00000E94461A982FF8018281209102013091AC
:100A10000301882309F4BCCF9A7A81E009F480E0CD
:100A2000809334019111B2CF69E2C9010E94261B63
:100A30000E94131A81E08093390180933A01C80122
:100A4000DF91CF911F910F91FF900C944E03C63C04
:100A50008CE5D80709F481CE80F4C43CECE5DE07D0
:100A600009F474CEC53CDC4529F7F801828188235E
:100A700009F44DCE0E94450B4ACEF8018281C83C54
:100A8000FCE5DF0709F475CE08F46ECE882309F47F
:100A90003ECE0E94B10B3BCEC03DECE5DE0709F433
:100AA000A8CE08F044C0CD3C8CE5D80709F476CE3A
:100AB000F8F4CB3CECE5DE0709F467CECC3CDC4532
:100AC00009F0B8CFF8018281882309F420CE0E9472
:100AD0001B0A623071058105910540F00E941B0AD6
:100AE000653071058105910508F434CE82E053CE5E
:100AF000CE3C8CE5D80709F466CECF3CDC4509F046
:100B000099CFF8018281882309F401CE0E941B0A43
:100B10006F3071058105910540F00E941B0A643118
:100B200071058105910508F415CE8FE034CEC33DE3
:100B3000ECE5DE0709F4EECEF8F4C13D8CE5D8070C
:100B400009F46DCEC23DDC4509F074CFF801828115
:100B5000882309F4DCCD0E941B0A693171058105E7
:100B6000910540F00E941B0A6232710581059105D2
:100B700008F4F0CD89E10FCEC73DECE5DE0709F4BE
:100B800055CEC83DFCE5DF0709F459CEC43DDC4530
:100B900009F050CFF8018281882309F4E2CE109247
:100BA0003A010E94BF1B909338018093370180E285
:100BB000BECE0C9493080C9495080C944D030C94A1
:100BC000DD050895972F70E026E0929F600D711D5E
:100BD0001124FB019EE1899FE00DF11D1124EE0F10
:100BE000FF1FE455FF4F859194910895FC01EE0F8E
:100BF000FF1FEC5EFD4F859194910895CF93DF9395
:100C00000E94E2050E949607EC018115904408F0CD
:100C100091C0C11580E3D80708F005C1C03ED105D9
:100C200008F071C0C03CD10508F0E9C0C83AD10550
:100C300080F4C53AD10508F0E9C0C130D10509F406
:100C40006EC020F0C430D10508F069C0C0E0D0E02B
:100C500066C0CD3BD105D0F7C83AD10509F427C10C
:100C6000C93AD10509F426C1CA3AD10509F425C10A
:100C7000CB3AD10509F424C1CC3AD10509F423C1FA
:100C8000CB3BD10509F422C1CC3BD10509F421C1EC
:100C9000CD3AD10509F420C1C03BD10509F41FC1EB
:100CA000CE3AD10509F41EC1CF3AD10509F41DC1D0
:100CB000C13BD10509F41CC1C23BD10509F41BC1DC
:100CC000C33BD10509F41AC1C43BD10509F419C1CC
:100CD000C53BD10509F418C1C63BD10509F417C1BC
:100CE000C73BD10509F416C1C83BD10509F415C1AC
:100CF000C93BD10509F414C1CA3BD10509F413C19C
:100D0000C0E0D4E40CC0CF3FD10509F060F4C03F8F
:100D1000D10508F086C0C83ED10508F097CFCE01B6
:100D2000DF91CF910895C11520E2D207C0F3CE0123
:100D30009F7068C0C11584E5D807A0F5C11523E5EB
:100D4000D20708F091C0C11581E5D80708F5C11593
:100D500020E5D20708F471C0CE0154E0969587953E
:100D60005A95E1F783709C2F937021E030E002C028
:100D7000220F331F9A95E2F73C68382BC695C6952B
:100D8000C37080E2C89FE0011124C22BD32BC7CFD0
:100D9000C11582E5D80708F053C0DC2FCC27C16FFE
:100DA000D06ABDCFC11526E5D20758F49C2F8827FD
:100DB000C115D54508F46CC0EC01CC27DF71D062B9
:100DC000AECFC11588E5D80708F440CFC11529E595
:100DD000D20708F461C0CE0190568115904208F008
:100DE00035CF8D2F8F710E941708DD27D06290E0DC
:100DF000982F882788279F71C82BD92B90CFCE0199
:100E0000805C91090E94F605EC0189CFC53AD105B5
:100E100009F447C0C63AD10509F046C0C2E8D0E49B
:100E20007ECFD0657CCFCE019927D3FF03C0EC01E4
:100E3000D86C75CFEC01D06C72CFDF70D06A6FCFF9
:100E4000CE018370992721E030E002C0220F331FCA
:100E50008A95E2F7C695C69580E2C89FE001112405
:100E6000C22BD32BDC685BCFCE018370992721E0A6
:100E700030E002C0220F331F8A95E2F7C695C6956F
:100E800080E2C89FE0011124C22BD32BDA6847CF40
:100E9000EC01C46FD06A43CFDC2FCC27C06FD06A7F
:100EA0003ECFC1E8D0E43BCFC3E8D0E438CFC2EEB8
:100EB000D4E435CFC9EED4E432CFCAEED4E42FCF98
:100EC000C5EBD4E42CCFC6EBD4E429CFC3EBD4E4F8
:100ED00026CFC4EBD4E423CFC7EBD4E420CFCCECB3
:100EE000D4E41DCFCDECD4E41ACFC3E8D5E417CFBA
:100EF000CAE8D5E414CFC2E9D5E411CFC4E9D5E4FA
:100F00000ECFC1E2D6E40BCFC3E2D6E408CFC4E2F1
:100F1000D6E405CFC5E2D6E402CFC6E2D6E4FFCEE2
:100F2000C7E2D6E4FCCECAE2D6E4F9CE8238910517
:100F300049F1B0F48133910509F45AC048F489327B
:100F4000910509F450C08A32910509F456C00895FC
:100F50008533910509F442C08933910599F00895CC
:100F6000833E910521F138F4803E910581F0823E67
:100F70009105A1F00895863E910501F1873E910506
:100F800031F10895209189022370E1F508952091AF
:100F9000890220FF12C089E390E008952091890220
:100FA00022FF0BC024FF31C080E090E00895209123
:100FB000890222FD2DC024FDF7CF089520918902DA
:100FC00023FFFBCF24FDF0CF87EE90E00895209122
:100FD000890223FFF0CF86EE90E0089520918902E8
:100FE00025FD19C008952091890225FD17C0089597
:100FF0002091890226FD15C008952091890226FDC1
:1010000013C0089580EE90E0089583EE90E0089577
:1010100082EE90E0089589E290E0089585E390E003
:1010200008958AE290E0089581E390E0C6CFCF93DF
:10103000C82F0E94C01A90E090938A028093890280
:1010400082FF06C09C2F9871983079F4C77FC460E6
:1010500083FF06C09C2F9871983171F4C77EC461DC
:1010600084FDC77E8C2FCF9108959C2F947194306E
:1010700079F7CB7FC860ECCF9C2F9471943181F7C6
:10108000CB7EC861EDCF08950F931F93CF938C0152
:10109000FB018281811106C0C1E08C2FCF911F918D
:1010A0000F910895C0914801C11125C006311C451A
:1010B00099F70E94430881E0809348010E94BF1B7A
:1010C000909347018093460110923B0110923D019D
:1010D00010923C0110923F0110923E01109241018A
:1010E000109240011092430110924201109245016A
:1010F00010924401D2CF80914601909147010E9405
:10110000CB1B883C910540F680913B01E82FF0E035
:10111000EE0FFF1FE45CFE4F118300838F5F80930F
:101120003B01C0E0BACF0C9449030C944A0385B745
:10113000806885BF85B7806885BFABE1B1E061E0BD
:1011400070E08D91E82FE295EF70F0E041A18F7093
:101150009B0101C0220F8A95EAF7922F9095942364
:1011600091A382A1822B82A381E0A032B80749F724
:10117000A5E1B1E061E070E08D91E82FE295EF70BC
:10118000F0E041A18F709B0101C0220F8A95EAF720
:10119000922F9095942391A382A1822B82A381E028
:1011A000AB31B80749F7EEE4F1E0A9E4B1E083E53B
:1011B00091E011921D928E179F07D9F70C94D905D3
:1011C0006F927F928F929F92AF92BF92CF92DF9257
:1011D000EF92FF920F931F93CF93DF9309E411E0F7
:1011E0009BE1C92E91E0D92EE801EE24E394F12C85
:1011F000BB24B39438811882D6018D916D01E82FFC
:10120000E295EF70F0E091A18F70A70101C0440F4B
:101210008A95EAF7892F842B81A382A1942E90943A
:10122000892182A3B0EABA95F1F785E1682E81E0C1
:10123000782E80E090E0D3012D913D01622F6295E0
:101240006F7070E0DB0190968C90A8802F70B701D2
:1012500001C0660F2A95EAF7682109F04DC0B70171
:10126000082E01C0660F0A94EAF72A2D262B288340
:10127000019686309105F9F681A1892181A382A189
:10128000842B82A38881381741F0B09253010E94C9
:10129000BF1B90935501809354012196B1E0CE3449
:1012A000DB0709F0A7CF80915301882399F0809143
:1012B0005401909155010E94CB1B069758F0EEE423
:1012C000F1E0D8018D918D018193CA17DB07C9F731
:1012D000109253010E94DB0581E0DF91CF911F91B5
:1012E0000F91FF90EF90DF90CF90BF90AF909F90C5
:1012F0008F907F906F90089560E070E0B6CFE82FF8
:10130000F0E0E25BFE4F808108950895CF92DF9276
:10131000EF92FF920F931F93CF93DF93E901662320
:1013200009F469C0E42EF12CEFEFF0E0E61BF109BF
:10133000EE9D8001EF9D100DFE9D100D1124212FBB
:10134000E12FFF27EE1AFF0A5CE3C52ED12CB60170
:101350000E94D126FB01BC01E69EC001E79E900DD4
:10136000F69E900D1124B6010E94D126E230F105BF
:10137000A1F140F4309779F0319759F180E020E005
:1013800040E00CC0E430F10591F168F13597B1F718
:10139000842F861B03C0812F262F210FE42FF0E01E
:1013A000E25DFC4F4491E22FF0E0E25DFC4F94914E
:1013B000E82FF0E0E25DFC4FE49149839883EA83F3
:1013C000DF91CF911F910F91FF90EF90DF90CF9021
:1013D0000895812F242F461BE1CF862F810FE42F04
:1013E000412F2E2FDBCFE42FE61B842FF9CF842F44
:1013F000462F410FD3CF842F242FD0CF88E090E009
:101400000C940727AB01BC0188E090E00C942527E1
:10141000E1E2F2E083E08083109222028FEF828388
:101420008383609121027091220280912302909126
:1014300024020C94020A6091210260FF06C06695A6
:101440006F7370E080E090E0089560E0FACF8091E3
:10145000210280FF06C06EE170E089E292E00C9408
:10146000FB0EE9E2F2E0118210821282339682E0F2
:10147000E338F807C1F7EFCFE9E2F2E08183608358
:101480004283339692E0E338F907C1F70C94270AB8
:10149000EF92FF920F931F93CF93DF9300D01F9291
:1014A000CDB7DEB7182FE92EF62E042F809121023A
:1014B00090912202A0912302B091240280932502F0
:1014C00090932602A0932702B093280280912102D4
:1014D00080FF1FC09E012F5F3F4F812F9E2D0E94D6
:1014E00086098091250210FB87F9809325021695C5
:1014F000809126028078812BE0FA87F9809326027A
:10150000F0922702009328024B8169818A810E9410
:101510003C0A0F900F900F90DF91CF911F910F9188
:10152000FF90EF9008956F927F928F929F92AF926B
:10153000BF92CF92DF92EF92FF920F931F93CF93C0
:10154000DF93EC01662E742E8091210280FF8EC005
:10155000982F9E77923079F5CE010E94480A8091AB
:1015600021029C2FC0FB87F98093210296958091E0
:1015700022028078892BD0FB87F980932202609227
:1015800023027092240260912102709122028091C4
:10159000230290912402DF91CF911F910F91FF9030
:1015A000EF90DF90CF90BF90AF909F908F907F9003
:1015B0006F900C94020AE82FE695EF739EE39E0F5E
:1015C0009F73943018F470902402C9CF9AE39E0F51
:1015D0009F73993070F4881F8827881F909122028A
:1015E000292F220FC22FC82B97FB992790F9D92FAB
:1015F000B6CF87E28E0F8F738A3008F0B0CFF0E05D
:101600007997E0FF31C02FEFEE7FEC5EFD4F8591C3
:1016100094916EE170E00E94D12626035001279F2D
:10162000B00C11247E0188E9E81A8EEFF80A09E26D
:1016300012E083E8C82E82E0D82E98E6892E9924FD
:101640009394C701B4010E94D1269801472D662DBD
:101650000E948609EA0CFB1C0D5F1F4FC016D106C5
:1016600081F70E94270A7BCF21E0CECFDF91CF9177
:101670001F910F91FF90EF90DF90CF90BF90AF90B0
:101680009F908F907F906F900895E1E2F2E020812B
:10169000221F2227221F30912202432F440F842F22
:1016A000822B37FB992790F9089668E671E00E9433
:1016B000E526438162810C94930A20912102221F26
:1016C0002227221F30912202432F440F842F822B86
:1016D00037FB992790F98830910544F4805A9E4F42
:1016E00040912402609123020C94930A089768E6C3
:1016F00071E00E94E526F4CF60912302862F90E0EE
:10170000883F910594F4685F80912102881F8827A3
:10171000881F90912202292F220F97FB992790F979
:1017200040912402822B0C94930A6FEFEDCF6091CD
:101730002302862F90E0089794F068508091210250
:10174000881F8827881F90912202292F220F97FB3C
:10175000992790F940912402822B0C94930A60E01F
:10176000EDCF40912402842F90E0883F910594F4BE
:10177000485F80912102881F8827881F909122024C
:10178000292F220F97FB992790F960912302822B32
:101790000C94930A4FEFEDCF40912402842F90E0F8
:1017A000089794F0485080912102881F8827881F4D
:1017B00090912202292F220F97FB992790F960918F
:1017C0002302822B0C94930A40E0EDCF90912102EA
:1017D00090FF42C09178811126C0926090932102BF
:1017E0006091210270912202809123029091240243
:1017F0000E94020A80912102982F9E779230D9F49C
:1018000010926B01881F8827881F90912202292F30
:10181000220F97FB992790F94091240260912302AF
:10182000822B0C94930A833210F09464D7CF8F7379
:10183000880F982BD3CF982F96959F732EE3290F5F
:101840002F73273120F491E090936B01DBCF995DEA
:101850009F739A30B8F6D4CF08958091F3018160D8
:101860008093F30181E080936C010E94A31A81119F
:1018700004C00E94821A0E94080A0E94FE09609316
:1018800021027093220280932302909324026E77A8
:1018900061F40E94080A0E94FE096093210270937D
:1018A0002202809323029093240281E080936B01B3
:1018B0008091210280FF04C086958F730C94E60B03
:1018C00008958091210286958F738F5F833208F08F
:1018D00081E00C94E60B80912102982F909590FB6B
:1018E00080F98093210260912102709122028091FF
:1018F0002302909124020E94020A8091210280FF1B
:1019000004C086958F730C94E60B10926B012FEF39
:1019100080E792E0215080409040E1F700C0000055
:101920000C94270ACF93C82F8091690190916A0186
:101930000E94CB1BEC2FF0E0E65DFD4FE491F0E060
:101940008E179F0718F10E94BF1B90936A01809326
:101950006901E0916801F0E0E25DFD4F4491809102
:101960002102881F8827881F90912202292F220F89
:1019700097FB992790F960912302822B0E94480AD5
:101980008091680190E0019680936801CF9108955D
:10199000CF93C82F80916601909167010E94CB1B65
:1019A000EC2FF0E0E95DFD4FE491F0E08E179F072A
:1019B000E8F00E94BF1B90936701809366014091FD
:1019C00024026091230280916401909165010E943C
:1019D000480A8091640190916501019668E671E082
:1019E0000E94D1269093650180936401CF91089560
:1019F000CF92DF92FF920F931F93CF93DF93F82E36
:101A000080916201909163010E94CB1BEF2DE695BE
:101A1000F0E0EC5DFD4FE491F0E08E179F07A8F138
:101A20000E94BF1B909363018093620109E212E060
:101A3000C0E0D0E088E6C82EDD24D3948091600118
:101A4000909161018C0F9D1FB6010E94D1269801D3
:101A500040912402609123020E9486092C960D5F1A
:101A60001F4FC83681E0D80749F70E94270A8091A6
:101A7000600190916101F0FE10C00196BE010E94CC
:101A8000D1269093610180936001DF91CF911F91E6
:101A90000F91FF90DF90CF9008950197F2CFCF92F2
:101AA000DF92EF92FF920F931F93CF93DF93C82F94
:101AB00080FF6EC01FEF80915E0190915F010E94D8
:101AC000CB1BC695EC2FF0E0EF5DFD4FE491F0E00D
:101AD0008E179F0708F453C00E94BF1B90935F01AD
:101AE00080935E0129E2E22E22E0F22EC0E0D0E0F7
:101AF000F70111821082128294E0C92ED12C00E0ED
:101B000080915D01800F87FD825E082E000C990B8D
:101B1000C817D907E9F4809124028C9DA0018D9DFE
:101B2000500D112455954795559547958091210263
:101B3000881F8827881F90912202592F550F97FBE5
:101B4000992790F9970160912302852B0E948609BD
:101B5000010FF1E0CF1AD10899F6219683E0E80E43
:101B6000F11CCE31D10521F60E94270A80915D013A
:101B7000113091F481110EC08DE180935D01DF91F0
:101B8000CF911F910F91FF90EF90DF90CF9008952C
:101B900011E091CF8150F1CF90E00196BE010E94FB
:101BA000E526EBCF0F931F93CF93DF93C82F809140
:101BB0005B0190915C010E94CB1BEC2FF0E0E25E98
:101BC000FD4FE491F0E08E179F0708F452C00E9489
:101BD000BF1B90935C0180935B01C9E2D2E0FE01E0
:101BE000118210821282339682E0E338F807C1F73F
:101BF00000E010E080915A01082E000C990B0817A4
:101C00001907E4F180910101082E000C990B80174F
:101C10009107A4F180912102881F8827881F909145
:101C20002202592F550F97FB992790F99E01409159
:101C3000240260912302852B0E9486090F5F1F4FAB
:101C400023960E311105B1F60E94270A80910001FA
:101C500090915A01980F90935A0120910101280FF9
:101C600020930101121614F49D311CF0819580938C
:101C70000001DF91CF911F910F9108951982188271
:101C80001A82DCCFEF92FF920F931F93CF93DF93D3
:101C900080915801909159010E94CB1B883E93403E
:101CA000D0F10E94BF1B9093590180935801C091BD
:101CB0005601D09157012196C170DD27D09357016D
:101CC000C093560189E2E82E82E0F82E10E008E782
:101CD000812F8695FE01E80FF11DCF0181709927B4
:101CE00097014091240260912302FC010E9FC001E4
:101CF0000F9F900D11240E9486091F5FF3E0EF0EE5
:101D0000F11C1E3129F7DF91CF911F910F91FF90A8
:101D1000EF900C94270ADF91CF911F910F91FF90C4
:101D2000EF90089580916B01882391F190912102A9
:101D3000892F86958F732EE3280F2F73243018F484
:101D400082500C94920C2AE3280F2F73233018F43E
:101D500086500C94C80C27E3280F2F73263018F4F4
:101D600089500C94F80C21E3280F2F73263018F4B7
:101D70008F500C944F0D2BE2280F2F73233018F443
:101D800085510C94D20D9E77903311F40C94420E31
:101D9000089535B1242F2095232335B1432B3FB728
:101DA000F894FC01680F791FE617F70711F43FBF9D
:101DB0000895819198E045B9000000C087FF25B9DA
:101DC000880F000000C000C000C025B900C09A956F
:101DD00091F7EACF24B1242B24B99B01220F331FA2
:101DE000620F731F0E94C90E87EC90E00197F1F714
:101DF00000C00000089540E20C94EA0E9093720136
:101E0000809371010895E0917101F0917201309712
:101E100021F00190F081E02D099480E00895E09197
:101E20007101F0917201309721F00280F381E02D71
:101E300009940895E0917101F0917201309721F0B9
:101E40000480F581E02D0994089520916F0130916F
:101E500070012817390771F09093700180936F011A
:101E6000E0917101F0917201309721F00680F781C5
:101E7000E02D0994089520916D0130916E0128178D
:101E8000390771F090936E0180936D01E0917101BB
:101E9000F0917201309721F00084F185E02D0994D2
:101EA000089508950C94510F81E008950E94B61B87
:101EB0000E9497080E94801C0C942D0CBF92CF9218
:101EC000DF92EF92FF920F931F93CF93DF93CDB7E3
:101ED000DEB72A970FB6F894DEBF0FBECDBF0E94C3
:101EE000E0080E94540F81112EC08FEF89838A83EE
:101EF0001B820E94BF1B8160782F9D838C83498148
:101F00005A816B818D810E9407100E94201F0E94C0
:101F1000030F90917301891709F469C00E94030FA0
:101F2000809373012A960FB6F894DEBF0FBECDBF23
:101F3000DF91CF911F910F91FF90EF90DF90CF90A5
:101F4000BF900C94DF0584E7C82E81E0D82E00E016
:101F500010E0B02E802F0E947F09E82EF601F1904C
:101F60006F018F1106C00F5F1F4F0530110589F7F4
:101F7000BCCF8091F30181FD0E94850980E090E053
:101F8000FE242F2D30E0482FB901082E02C0759590
:101F900067950A94E2F760FF25C08E83BF8281E0D7
:101FA00090E06C0102C0CC0CDD1C4A95E2F72E2DAE
:101FB00030E02C213D21232B09F480E088870E940A
:101FC000BF1B8160782F9A8789874E815F816885E2
:101FD0008A850E940710F801EC58FE4F80818C25FD
:101FE000808393CF01968630910569F6BCCF2A96FF
:101FF0000FB6F894DEBF0FBECDBFDF91CF911F911A
:102000000F91FF90EF90DF90CF90BF900895CF9306
:10201000DF93CDB7DEB72B970FB6F894DEBF0FBEB8
:10202000CDBF4F83588769877A878B87DE011196EA
:1020300086E0FD0111928A95E9F785E0FE01379669
:1020400001900D928A95E1F749815A816B817C81DB
:102050008D819E810E94EC162B960FB6F894DEBF00
:102060000FBECDBFDF91CF910895882309F4B4C08E
:102070009CEF980F913A48F4682F8091020190915B
:1020800003010E94261B0C94131A90E2980F9830BB
:1020900050F4877091E001C0990F8A95EAF7892F73
:1020A0000E94491AF0CF9BE5980F933070F4853A5F
:1020B00031F0863A39F083E890E00C94250F81E8FE
:1020C00090E0FBCF82E890E0F8CF98E5980F95314B
:1020D00008F082C0883A09F440C0893A09F440C047
:1020E0008A3A09F440C08B3A09F440C08C3A09F4AA
:1020F00040C08B3B09F440C08C3B09F440C08D3A92
:1021000009F440C0803B09F440C08E3A09F440C055
:102110008F3A09F440C0813B09F440C0823B09F486
:1021200040C0833B09F440C0843B09F440C0853B78
:1021300009F440C0863B09F440C0873B09F440C025
:10214000883B09F440C0893B09F440C08A3B09F44C
:1021500040C080E090E00C943B0F82EE90E0FBCF1B
:1021600089EE90E0F8CF8AEE90E0F5CF85EB90E035
:10217000F2CF86EB90E0EFCF83EB90E0ECCF84EBF7
:1021800090E0E9CF87EB90E0E6CF8CEC90E0E3CFF6
:102190008DEC90E0E0CF83E891E0DDCF8AE891E03C
:1021A000DACF82E991E0D7CF84E991E0D4CF81E220
:1021B00092E0D1CF83E292E0CECF84E292E0CBCF27
:1021C00085E292E0C8CF86E292E0C5CF87E292E056
:1021D000C2CF8AE292E0BFCF0895882351F19CEFED
:1021E000980F913A48F4682F809102019091030171
:1021F0000E94311B0C94131A90E2980F983050F4FF
:10220000877091E001C0990F8A95EAF7892F0E94A3
:102210004F1AF0CF9BE5980F933020F480E090E0C8
:102220000C94250F885A853120F480E090E00C94BE
:102230003B0F0895882321F00E94491A0C94131A29
:102240000895882321F00E944F1A0C94131A0895C0
:102250008F929F92AF92BF92DF92EF92FF920F9375
:102260001F93CF93DF937C01D62FC72FFC010581ED
:1022700002950F70128111110E94681A0E940C1AA7
:10228000D82E882371F0112339F180E28D0F883028
:1022900018F182E00E94F5190E940C1A91E0D82EE4
:1022A000D926BC2EB2948FE0B8228B2D90E0FC0191
:1022B000E45AFE4E0C94F9266E116E11AD11AD115B
:1022C000EC1128129C119C116A129C11081308131E
:1022D00086139C119C118F13D12CE3CF8C2F807F00
:1022E000CF70882311F0C295C07F1123A9F0CC23B1
:1022F00059F080E28D0F883010F0D11109C08C2F79
:102300000E94491A0E94131A8D2F0E94351014C082
:102310008C2F0E945A1AF6CF8D2F0E94ED10CC23DD
:1023200059F080E28D0F883010F0D11112C08C2F3F
:102330000E944F1A0E94131A98E0B91609F403C1BB
:10234000B91608F460C086EF8B0D823008F05BC0D0
:10235000FAC08C2F0E94601AEDCF8C2F807FCF7037
:10236000803211F0C295C07FDD2369F0D13019F1C0
:10237000112361F1002321F1F701858180FFC4CF92
:102380008F7085831DC0112359F08C2F011103C05C
:102390000E941A11D1CF0130D9F70E947C1ACCCFFC
:1023A000011106C00E947F1A8C2F0E942111C4CFF8
:1023B0000130C1F7C1CF112329F0063008F0BCCF9E
:1023C0008C2FE6CF053008F0B7CFEECF002361F3B6
:1023D0008D2F0E94ED10B0CF8C2F8695869583703F
:1023E00059F0813009F0A8CF112379F18D2F9C2F5E
:1023F00093700E943B0F07C0112321F18D2F9C2F5A
:1024000093700E94250FDD2009F490C10E94E81905
:1024100080FD8CC1F70112820E94E2190E947E1891
:10242000C7010E94A2130E94E219DF91CF911F9170
:102430000F91FF90EF90DF90BF90AF909F908F90A3
:102440000C949F1880E090E0DCCF80E090E0D1CF4A
:10245000112309F1D53F99F0D63FB9F0D43F49F4A3
:102460008091830290918402816090938402809392
:1024700083028D2F0E94291E0E94151FC4CF8091B8
:102480008302909184028260F0CF809183029091C8
:1024900084028460EACFD53F89F0D63FA9F0D43FCB
:1024A00049F480918302909184028E7F90938402FC
:1024B000809383028D2F0E94911EDECF8091830234
:1024C000909184028D7FF2CF80918302909184025B
:1024D0008B7FECCF8C2F837009F04CC0111133C06F
:1024E0002D2F229526952770220F220F6D2F6F70AA
:1024F000862E912CA12CB12C022E04C0880C991C84
:10250000AA1CBB1C0A94D2F7D4FF22C06FE070E073
:1025100080E090E004C0660F771F881F991F2A95FE
:10252000D2F76095709580959095C695C695C370C5
:10253000C23091F0C0F4682979298A299B29C130D9
:10254000B1F00E9434180E94030F0E94DF055BCF98
:1025500060E070E0CB01E9CF682979298A299B29BD
:102560000E944618F0CF0E943418C501B4010E94A1
:102570002218E9CF1123C1F18C2F8170882319F320
:102580002D2F229526952770220F220F6D2F6F7009
:10259000862E912CA12CB12C022E04C0880C991CE3
:1025A000AA1CBB1C0A94D2F7D4FF20C06FE070E0D5
:1025B00080E090E004C0660F771F881F991F2A955E
:1025C000D2F76095709580959095C695C695C37025
:1025D000C23081F0B0F4682979298A299B29C13059
:1025E000A1F00E94F518AFCF8695C8CF60E070E0EB
:1025F000CB01EBCF682979298A299B290E940719E9
:10260000A2CF0E94F518C501B4010E94E3189BCF28
:102610008D2F90E0FC01E05EF109E531F10508F055
:1026200061C0EB5EFC4E0C94F9262A132A132A1380
:102630002A132A132A132A132A132A132A132A13B2
:102640002A132A132A132A132A13371345134C1358
:1026500053135D13DF708C2F8F71112321F00E94B3
:102660007E188D2F95CE0E949F188D2F9ECE112300
:1026700041F0053008F060CE8C2F8F710E94C21897
:102680005BCE063008F058CEF7CF112339F08C2FEF
:102690008F710E947E1850CE1123C9F38C2F8F7139
:1026A0000E949F1849CE112329F08C2F8F710E9410
:1026B000691842CE0E9464183FCE112349F0CF71B1
:1026C0008C2F0E947E1863E08C2F0E94EC1934CE70
:1026D00081E00E94F519023008F42ECE82E00E94BB
:1026E000F5192ACE112319F0002389F20DCE00230B
:1026F000A9F2D93309F06CCEFFEF27EE83E0F15059
:1027000020408040E1F700C0000062CE4C2F4F70A7
:102710006D2FC7010E9439030E94951774CE4C2F6C
:102720004F706D2FC7010E94E1056DCEDF91CF91F3
:102730001F910F91FF90EF90DF90BF90AF909F900F
:102740008F9008950F931F93CF93DF93EC0198819F
:1027500089812B813C81232B39F08F3F19F481E053
:102760009F3F19F080E001C081E080FD13C0CE01E1
:102770000E945F03882371F0688179818A810E94B9
:10278000BF198C010E9419190E941018B801CE01BE
:102790000E942811DF91CF911F910F9108950E94FF
:1027A000681A0E94791A80910201909103010E9497
:1027B0003C1B0E94131A0E94AC1F0E94151F80E050
:1027C00090E00E94250F80E090E00C943B0F0E9467
:1027D000571A0C94CF130E94B419E92FE295EF70A9
:1027E0004E2F50E0FA013297EE30F105D8F4E55063
:1027F000FC4E0C94F9260914091412141214141422
:1028000012141214121409140914191412141214A3
:102810001914803F19F020F4803E20F481E00895DF
:10282000843FE1F380E00895803EC0F3813FD1F71B
:10283000F5CF93FB882780F90895CF93DF9300D0DD
:1028400000D01F92CDB7DEB70F900F900F900F9072
:102850000F90DF91CF910895CF93DF9300D000D0F8
:1028600000D0CDB7DEB726960FB6F894DEBF0FBE08
:10287000CDBFDF91CF9108951F93CF93DF93C09188
:102880007A0116E080917B01C81304C0DF91CF91DB
:102890001F910895D0E01C9FF0011D9FF00D1124A1
:1028A000E458FE4F4081518162817381848195811A
:1028B0000E942C142196C770E5CF4091AC01509135
:1028C000AD016091AE017091AF018091B001909126
:1028D000B1010C942C1420917A0190917B0156E067
:1028E000291302C080E0089530E0529FF001539F09
:1028F000F00D1124E458FE4F7181761306C07081EB
:10290000781303C07281741304C02F5F3F4F277088
:10291000E7CF81E008951F93CF93DF938091B101BA
:1029200082958F70D1F48091AE018823B1F08091AF
:102930007A01D0917B01B091AC01C091AD01409181
:10294000AF015091B001A1E0BF3F09F0A0E0BA0192
:102950006095709516E08D1304C0DF91CF911F91A3
:10296000089541155105D9F1CF3FD9F120E090E00C
:1029700020FD3CC0189FF001199FF00D1124E45870
:10298000FE4F21812C1332C020812B132FC02281B6
:1029900021112CC0238134812417350720F1241BF9
:1029A000350B283C310510F52091B1012F702061C5
:1029B0002093B10126E0289FF001299FF00D1124FA
:1029C000EF57FE4F80818F70806180838CEA91E0A9
:1029D0000E94A213DF91CF911F910C943C1421E02F
:1029E000C6CF2A2FC4CF260F371FDBCF01968770A3
:1029F000B2CF9F92AF92BF92CF92DF92EF92FF92AF
:102A00000F931F93CF93DF93CDB7DEB761970FB6C8
:102A1000F894DEBF0FBECDBF8C0185E0F801DE016A
:102A20001D9601900D928A95E1F7D801DC901196E0
:102A3000EC9011971296CC903091AC014091AD0181
:102A40008091AF019091B001009739F04F3F19F498
:102A500021E03F3F19F020E001C021E020FDAEC1A0
:102A6000F801A380B4809090AE01992009F44EC182
:102A70002091B101A816B90610F1B501681B790BB8
:102A8000CB01FF24F394883C9105F0F0F12C207FDA
:102A900009F005C17A2DB98AA88A4D2D5E2D6C2DBD
:102AA00089890E941D148CEA91E00E94A213ECEA2D
:102AB000F1E086E0DF011D928A95E9F7BCC08095C0
:102AC00090958A0D9B1DDDCF822F807F09F09EC0DF
:102AD0004E1127C03D1125C0FC2CC11022C02F7003
:102AE00020612093B1010E945D148CEA91E00E9464
:102AF000A2138091B101D80115968C938F2D619608
:102B00000FB6F894DEBF0FBECDBFDF91CF911F91FE
:102B10000F91FF90EF90DF90CF90BF90AF909F907C
:102B20000895A114B10441F0BFEFEB1203C081E09E
:102B3000DB1619F080E001C081E080FD1AC081E061
:102B40008C2580FF18C04C2D6E2D8D2D0E946B148E
:102B5000882389F08CEA91E00E94A213ECEAF1E06C
:102B600086E0DF011D928A95E9F70E945D14F12C41
:102B7000C5CF80E0E6CFAB2841F0BFEFEB1203C03A
:102B800081E0DB1619F080E001C081E080FD24C007
:102B900081E08C25E82FE170BE2E80FF2DC04C2DEA
:102BA0006E2D8D2D0E946B14F82E811125C0DD86AF
:102BB000EE868D859E850E94B419292F22952F704F
:102BC000223060F0243098F49F7069F0D801159697
:102BD0009C91907F41F492CF80E0DCCF9F7019F000
:102BE000882309F48BCF805E883008F487CFC80132
:102BF0000E94A213FB2C82CFFC2CCC2009F47ECFA8
:102C00008091B10181608093B101B1CF4E1116C0A6
:102C10003D1114C0C11012C08091B101F80185832B
:102C2000C8010E94A21386E0F801ACEAB1E001906D
:102C30000D928A95E1F70E945D1460CFDD86EE86E5
:102C40008D859E850E94EB13882309F4C1C0CC209A
:102C500009F4BEC02091B101822F82958F7090E05F
:102C6000029774F08091AC019091AD0198878F83A9
:102C70001986BB86AA862C87CE0107960E94A213CE
:102C800086E0F801ACEAB1E001900D928A95E1F797
:102C90000E948B140E945D14FF24F3942FCF4E11D9
:102CA00014C03D1112C0C11010C08091B101F801D3
:102CB0008583C8010E94A21386E0ECEAF1E0DF01FF
:102CC0001D928A95E9F7F92C19CFDD86EE868D8560
:102CD0009E850E94EB13882309F47AC0CC2009F466
:102CE00077C02091B101822F82958F7090E002977A
:102CF0003CF28091AC019091AD019A8389831B8253
:102D0000BD82AC822E83CE010196B8CFA816B9063B
:102D100090F0F501E81BF90BCF01883C910580F09C
:102D2000F12C7A2DB98AA88A4D2D5E2D6C2D8989BA
:102D30000E941D14BCCE809590958A0D9B1DEDCFF1
:102D4000FC2CCC2009F444C04E1127C03D1125C0F5
:102D50008091B10180FD18C0982F92959F70292F06
:102D600030E02115310581F0D80115968C93159727
:102D70002F30310509F454CF9F5F9295907F8F706B
:102D8000892B15968C934CCF86E0F801ACEAB1E024
:102D900001900D928A95E1F7B1CEDD86EE868D85A4
:102DA0009E850E94EB1381116BCF8091B1018160F0
:102DB0008093B101C8010E94A213A0CECC2041F0A3
:102DC000DD86EE868D859E850E94EB13811158CF9E
:102DD000C8010E94A21360CF1F93CF93DF93CDB79A
:102DE000DEB72C970FB6F894DEBF0FBECDBF4F8372
:102DF000588769877A878B879C87CE0107960E94C0
:102E0000F914882349F19F8188852A853B85232BE6
:102E100039F08F3F19F481E09F3F19F080E001C045
:102E200081E080FD08C04F81588569857A858B8552
:102E30009C850E942C1416E080917A0190917B0170
:102E4000891343C02C960FB6F894DEBF0FBECDBFDA
:102E5000DF91CF911F91089586E0FE013796DE0144
:102E6000119601900D928A95E1F79F8188852A85B8
:102E70003B85232B39F08F3F19F481E09F3F19F0F8
:102E800080E001C081E080FDD6CF20917B0130E061
:102E9000C90101968770992740917A0150E0841703
:102EA0009507A9F196E0929FD001939FB00D112450
:102EB000A458BE4FFE01319601900D929A95E1F70C
:102EC00080937B010E943C14B6CF819FC0011124E6
:102ED00084589E4F0E94F914882309F4B3CFE091DF
:102EE0007A011E9FF0011124E458FE4F4081518168
:102EF00062817381848195810E942C1480917A0172
:102F000090E001968770992780937A0195CF0E946F
:102F1000E71310927B0110927A01ECEAF1E086E06F
:102F2000DF011D928A95E9F78DCFEF92FF920F9303
:102F30001F93CF93DF938C01892B81F0F12CEE242A
:102F4000E394E8012196F8018491843770F4843089
:102F500008F062C08130B1F08230B1F1DF91CF91E1
:102F60001F910F91FF90EF900895853709F44FC09E
:102F700008F43FC09CE7980F903780F78F770E9446
:102F8000ED104CC00E5F1F4FFE01849190E2980F30
:102F9000983060F48770FE2D01C0FF0F8A95EAF724
:102FA0008F2F0E946B1A0E94131A02C00E943510C4
:102FB0008F2D882309F4C5CFEFE9FFE03197F1F7B2
:102FC00000C000008150F5CF0E5F1F4FFE018491BD
:102FD00090E2980F983050F48770FE2D01C0FF0FDB
:102FE0008A95EAF78F2F0E94711ADDCF0E94ED10AB
:102FF000DFCF0E5F1F4FFE01C491CC23C9F28FE9D2
:103000009FE00197F1F700C00000C150F6CF0E5FBE
:103010001F4FFE01F490CCCF0E9435108E01C8CF17
:10302000089508950C9411180E9412186093CA0113
:103030007093CB018093CC019093CD010C94CF136E
:103040000C9414180F931F930091CA011091CB0197
:103050002091CC013091CD01602B712B822B932BD1
:103060001F910F910C9414180F931F930091CA0194
:103070001091CB012091CC013091CD0160237123BF
:10308000822393231F910F910C9414180F931F9375
:103090000091CA011091CB012091CC013091CD015A
:1030A00060277127822793271F910F910C94141882
:1030B0000E9411186093C6017093C7018093C801E4
:1030C0009093C9010C94CF1360E070E0CB010C9495
:1030D00058180F931F9341E050E060E070E08A01C0
:1030E0009B0104C0000F111F221F331F8A95D2F7C6
:1030F000C901B8011F910F910C9458180F931F9399
:1031000041E050E060E070E004C0440F551F661FCE
:10311000771F8A95D2F78091C6019091C701A0913F
:10312000C801B091C9018A019B01082B192B2A2BD8
:103130003B2BC901B8011F910F910C9458180F93A4
:103140001F9341E050E060E070E004C0440F551F61
:10315000661F771F8A95D2F7CB01BA0160957095EB
:10316000809590950091C6011091C7012091C801EA
:103170003091C90160237123822393231F910F9102
:103180000C9458180F931F9341E050E060E070E0FA
:1031900004C0440F551F661F771F8A95D2F7809190
:1031A000C6019091C701A091C801B091C9018A01DF
:1031B0009B01082719272A273B27C901B8011F911E
:1031C0000F910C9458180F931F930091C601109102
:1031D000C7012091C8013091C901602B712B822B4E
:1031E000932B1F910F910C9458180F931F930091DC
:1031F000C6011091C7012091C8013091C901602317
:103200007123822393231F910F910C9458180F93CD
:103210001F930091C6011091C7012091C801309100
:10322000C90160277127822793271F910F910C9462
:1032300058180895E92FEE0FE90FEE0F8E0F982F13
:10324000977041E001C0440F9A95EAF786958695FC
:10325000869595E0899FF0011124EE54FE4F20E001
:1032600030E070E05081CB01022E02C09695879528
:103270000A94E2F7817081958527842385278193BD
:103280002F5F3F4F2530310569F70895292F220F11
:10329000290F220F820F982F977086958695869515
:1032A00045E0849F9001112460E070E080E0F90126
:1032B000E60FF71FEE54FE4F408150E0092E02C08A
:1032C000569547950A94E2F741705527062E01C09E
:1032D000440F0A94EAF7842B6F5F7F4F65307105C6
:1032E00031F70895BF92CF92DF92EF92FF920F9342
:1032F0001F93CF93DF938C01C090C601D090C7017C
:10330000E090C801F090C9018091CA019091CB0171
:10331000A091CC01B091CD01C82AD92AEA2AFB2A72
:10332000CFE1D0E0BC2ED701C6010C2E04C0B6956B
:10333000A795979587950A94D2F780FD0EC021979F
:1033400088F7B12C8B2DDF91CF911F910F91FF90BA
:10335000EF90DF90CF90BF900895B8018C2F0E941E
:10336000FE05019761F3EECFCF93DF93EC010E944E
:103370007219BE010E94FE05DF91CF9108951F933F
:10338000CF93DF93EB0190917901992339F0CB0131
:103390000E94B419DF91CF911F910895882369F09D
:1033A000CB010E947219182F682FCE010E941A19A2
:1033B000BE01812F0E94FE05EDCFCB010E94461970
:1033C000182FF6CF8091CE01859585958595089526
:1033D0008091CE018770089598E0899F9001112413
:1033E000622B6093CE010C947E182091CE018095C3
:1033F00082238093CE01982F977069F430E0482F94
:10340000082E000C550B2417350729F08595859556
:1034100085950C949F1808959091CE01977081E046
:1034200009F480E00895E0910201F0910301809198
:10343000F2018083E0910201F0910301808190917B
:10344000F101892B8083E0910201F09103018081D9
:103450009091F001892B80839091CF01992381F085
:10346000E0910201F09103018081892B808380919A
:103470000201909103010E94C91A81111092CF019B
:1034800080910201909103010C940F0F8091F20141
:1034900008959091F201892B8093F2010895982F5D
:1034A00090958091F20189238093F2010895109202
:1034B000F20108959091F101892B8093F101089513
:1034C000982F90958091F10189238093F1010895BF
:1034D0001092F10108959091F001892B8093F001F1
:1034E0000895982F90958091F00189238093F001A1
:1034F00008951092F00108958093CF0108951092DD
:10350000CF0108956DEE7EEF80E090E00E943127BC
:1035100060E082E090E00E94132760E083E090E0AA
:103520000E94132760E084E090E00E94132760E08F
:1035300085E090E00E94132740E050E0BA0188E067
:1035400090E00C94252780E090E00E940D2721E078
:103550008D3E9E4F09F020E0822F089582E090E09A
:103560000C94FF26682F82E090E00C94132783E0F0
:1035700090E00C94FF26682F83E090E00C941327D2
:1035800084E090E00C94FF26682F84E090E00C9497
:103590001327FC0131969C01205E3F4F80E0919102
:1035A00091118F5FE217F307D1F708959C01FC0199
:1035B00032969FEF80E04191461751F09F3F19F4FA
:1035C000411101C0982F8F5F8E31A9F79F3F09F4F9
:1035D0000895290F311D97FD3A95F90162830895E9
:1035E0009C01225E3F4FFC014281461301C01282C2
:1035F000019682179307B9F70895262F26952695E9
:1036000026952F3169F0FC01E20FF11D677021E072
:1036100030E001C0220F6A95EAF78181822B818315
:103620000895262F2695269526952F3171F0FC01B9
:10363000E20FF11D677021E030E001C0220F6A95B2
:10364000EAF7209581812823218308952091140190
:10365000222329F02091890227FD0C94FD1A0C9455
:10366000D61A20911401222329F02091890227FDE6
:103670000C94111B0C94F01AFC0131968096119257
:10368000E817F907E1F7089580918F02843039F146
:103690001092F40120E488E190E00FB6F894A89528
:1036A000809360000FBE2093600080E00E94DF05E1
:1036B00083B7817F846083BF83B7816083BF789441
:1036C000889583B78E7F83BF0FB6F894A8958091B5
:1036D0006000886180936000109260000FBE0895C2
:1036E00008950C94701BCF930E94711B0E94E008F8
:1036F0000E94701BC0E08C2F0E947F09811105C0C1
:10370000CF5FC530C1F7CF91089581E0FCCF0E9413
:10371000E7130E94030F0C94DF051F920F920FB660
:103720000F9211248F939F93AF93BF938091F401D5
:10373000811113C08091850290918602A091870229
:10374000B09188024196A11DB11D8093850290938E
:103750008602A0938702B0938802BF91AF919F9198
:103760008F910F900FBE0F901F90189582E084BD2F
:1037700093E095BD9AEF97BD80936E0008952FB7A3
:10378000F8948091850290918602A0918702B09171
:1037900088022FBF0895CF92DF92EF92FF920F938E
:1037A0001F932FB7F8944091850250918602609143
:1037B0008702709188022FBF6A017B01EE24FF24EB
:1037C0008C0120E030E0C016D106E206F30650F08E
:1037D000481B590BCA011F910F91FF90EF90DF908A
:1037E000CF90089541505109F3CF78941F920F92D2
:1037F0000FB60F9211248F939F93AF93BF93809135
:10380000850290918602A0918702B091880201966C
:10381000A11DB11D8093850290938602A09387021B
:10382000B0938802BF91AF919F918F910F900FBE7F
:103830000F901F9018950E94CC23F8942FEF87EAE1
:1038400091E6215080409040E1F700C0000087E001
:1038500090EBDC018093980290939902A0939A02D6
:10386000B0939B029CE088E10FB6F894A8958093F2
:1038700060000FBE90936000FFCFCF92DF92EF9277
:10388000FF920F931F93CF93C0E0E82EF12C8C2F63
:103890000E947F0900E010E0C82ED12CC601002E46
:1038A00002C0959587950A94E2F780FD11C00F5FDD
:1038B0001F4F0630110591F7CF5FC53041F780E00B
:1038C000CF911F910F91FF90EF90DF90CF900895CF
:1038D000602F7C2F80E00E94E205E816F90639F798
:1038E00081E0EECFCF93C82F8CE20E943D1C88234D
:1038F00021F08C2FCF910C943D1C80E0CF91089546
:10390000CF930E94A31A811102C00E94821AC5E6B9
:10391000C15009F0E9C089E20E94721C811118C1EE
:103920008AE20E94721C81110E94821A85E00E9424
:10393000721C81110E941B1C0E94AE1A8093F3011D
:1039400087E00E94721C882389F08BE10E94721C20
:10395000882309F4D2C08091F30181FB992790F963
:1039600021E0922790FB81F98093F3018091F3018C
:103970000E94B21A0E94C01A90E090938A0280932B
:10398000890280EE0E94721C882341F08091890296
:10399000982F909590FB80F98093890289E30E948B
:1039A000721C882359F08091890281FB992790F934
:1039B00021E0922790FB81F98093890282EE0E9498
:1039C000721C882359F08091890282FB992790F913
:1039D00021E0922790FB82F98093890286EE0E9473
:1039E000721C882359F08091890283FB992790F9F2
:1039F00021E0922790FB83F98093890283EE0E9455
:103A0000721C882359F08091890284FB992790F9D0
:103A100021E0922790FB84F98093890285E30E943C
:103A2000721C882359F08091890285FB992790F9AF
:103A300021E0922790FB85F98093890281E30E941F
:103A4000721C882359F08091890286FB992790F98E
:103A500021E0922790FB86F98093890281E10E9400
:103A6000721C882359F08091890287FB992790F96D
:103A700021E0922790FB87F9809389028091890247
:103A80000E94C41A87E20E94721CC82F8EE10E9415
:103A9000721C8111C2608FE10E94721C8111C4608E
:103AA00080E20E94721C8111C86081E20E94721C37
:103AB0008111C06182E20E94721C8111C06283E2A6
:103AC0000E94721C8111C06484E20E94721C8823CF
:103AD000C9F1C0688C2F0E94BB1A6C2F70E080E087
:103AE00090E0CF910C9420180E94E0088FE39CE9AD
:103AF0000197F1F700C000000BCF8EE00E94721C0E
:103B0000882351F08091F30182FB992790F921E0FD
:103B1000922790FB82F928CF80E10E94721C90913D
:103B2000F301882351F093FB882780F921E0822755
:103B300080FB93F99093F30119CF892F809580FB37
:103B400090F9F8CFC111C6CF0E94B71A682FC6CF1F
:103B5000CF9108958091F70180FF12C06091070115
:103B600085E0689FB00111247595679575956795F7
:103B700060387105A8F56115710581F581E008953A
:103B800081FF09C06091070185E0689FB0011124A1
:103B900075956795EDCF82FF07C06091070185E0BD
:103BA000689FB0011124E4CF9091F8019923A1F00E
:103BB00060910601961788F72091070185E0289FFC
:103BC00090011124929FA001939F500D112470E049
:103BD000CA010E94E526CCCF65E070E0862F0895EB
:103BE0008FE708958091F70180FF0CC06091050177
:103BF00070E075956795759567956115710539F54F
:103C000081E0089581FF06C06091050170E075951F
:103C10006795F3CF82FF08C06091050170E06038BE
:103C2000710558F38FE708958091F801882369F0B2
:103C300060910401861780F790910501899FC0016A
:103C4000112470E00E94E526EACF61E070E0862F43
:103C50000895803F31F40E94AA1D81958093FB0155
:103C60000895813F19F40E94AA1DF8CF823F31F4D4
:103C70000E94AA1D81958093FA010895833F19F44B
:103C80000E94AA1DF8CF893F29F40E94F21D80935B
:103C9000FC0108958A3F21F40E94F21D8195F7CF1F
:103CA0008B3F31F40E94F21D81958093FD010895B0
:103CB0008C3F19F40E94F21DF8CF843F31F48091BB
:103CC000F90181608093F9010895853F21F4809185
:103CD000F9018260F7CF863F21F48091F901846079
:103CE000F1CF873F21F48091F9018860EBCF883FC5
:103CF00021F48091F9018061E5CF8D3F31F480910D
:103D0000F70181608093F70108958E3F21F480913F
:103D1000F7018260F7CF8F3FB9F78091F701846098
:103D2000F1CF803FC1F48091FB0187FD1092FB0130
:103D30008091FA0181110EC08091FB0181110AC0AE
:103D40008091FC01811106C08091FD01811102C0AA
:103D50001092F8010895813F29F48091FB01181613
:103D60002CF3E6CF9091FA01823F29F497FFE0CF40
:103D70001092FA01DDCF833F19F41916CCF3D8CF96
:103D8000893F39F48091FC01181694F61092FC01D9
:103D9000CFCF8A3F29F48091FC0187FFC9CFF6CFAE
:103DA0008B3F39F48091FD0187FFC2CF1092FD0156
:103DB000BFCF8C3F29F48091FD011816BCF3B8CF1A
:103DC000843F31F48091F9018E7F8093F901B0CF67
:103DD000853F21F48091F9018D7FF7CF863F21F453
:103DE0008091F9018B7FF1CF873F21F48091F90118
:103DF000877FEBCF883F21F48091F9018F7EE5CF5B
:103E00008D3F31F48091F7018E7F8093F70190CF41
:103E10008E3F21F48091F7018D7FF7CF8F3F09F01E
:103E200087CF8091F7018B7FF0CF89EF91E00E94DF
:103E30001A0F0E94BF1B9093F6018093F50108951D
:103E40001F93CF93DF938091F5019091F6010E942B
:103E5000CB1BAC019091F8019923D1F0209108017E
:103E600030E04217530780F08091FA01C091FB01C6
:103E7000D091FC011091FD01811111C0C11168C0E8
:103E8000D11166C0111164C0DF91CF911F910895C7
:103E9000209109018AE0289F90011124E2CF9F3FE1
:103EA00019F09F5F9093F801181624F40E94AA1D40
:103EB0008093FA018091FA0187FF05C00E94AA1D34
:103EC00081958093FA011C1624F40E94AA1D809308
:103ED000FB018091FB0187FF05C00E94AA1D81950F
:103EE0008093FB014091FA01442379F03091FB016A
:103EF000332359F025EB4203A00111245093FA011A
:103F00003203900111243093FB011D1624F40E940A
:103F1000F21D8093FC018091FC0187FF05C00E9487
:103F2000F21D81958093FC01111624F40E94F21D6C
:103F30008093FD018091FD0187FF05C00E94F21D65
:103F400081958093FD01DF91CF911F910C94151FF6
:103F50009F3F09F0A6CFB7CFE9EFF1E085E0DF01A1
:103F60001D928A95E9F71092F8011092F7010895D1
:103F700080911E0208950F931F93CF93DF9300D07B
:103F80001F92CDB7DEB78C010E942222823011F041
:103F9000843019F583E089831B830A838093E900C9
:103FA0008FEF9091E800815095FD06C095ED9A95B0
:103FB000F1F700008111F5CF8091E80085FF0DC079
:103FC00040E050E063E070E0CE0101960E943F22A5
:103FD0008091E8008E778093E8000F900F900F900B
:103FE000DF91CF911F910F910895CF93DF9300D070
:103FF0001F92CDB7DEB720918F02243031F522E039
:104000002983805891099B838A8383E08093E90008
:104010008FEF9091E800815095FD06C095ED9A953F
:10402000F1F700008111F5CF8091E80085FF0DC008
:1040300040E050E063E070E0CE0101960E943F2234
:104040008091E8008E778093E8000F900F900F909A
:10405000DF91CF910895CF93DF93EC010E9422224C
:10406000823011F08430F9F482E08093E9008FEF20
:104070009091E800815095FD06C095ED9A95F1F775
:1040800000008111F5CF8091E80085FF0CC040E071
:1040900050E065E070E0CE010E943F228091E80090
:1040A0008E778093E800DF91CF910895CF93DF93CF
:1040B000EC010E942222823011F0843079F5809147
:1040C0001401882371F18091890287FF2AC084E05E
:1040D0008093E9008FEF9091E800815095FD06C034
:1040E00095E19A95F1F700008111F5CF8091E800F4
:1040F00085FF14C040E050E060E270E0CE010E9415
:104100003F228091E8008E778093E80080E2FE01F4
:10411000AEEFB1E001900D928A95E1F7DF91CF917A
:10412000089581E08093E9008FEF9091E80081503D
:1041300095FD06C095ED9A95F1F700008111F5CF38
:104140008091E80085FFEACF40E050E068E070E051
:10415000D5CF80918E02811109C00E94CC230E948C
:1041600029248091E20084608093E20008951092F7
:104170008E020895089508950C94871B42E061EC27
:1041800081E00E94492342E061EC82E00E944923E1
:1041900042E061EC83E00E94492342E261EC84E06A
:1041A0000C94492380919102833009F455C030F476
:1041B000813071F1823009F491C008958A3009F498
:1041C0007DC08B3009F463C0893009F044C0809110
:1041D0009002813209F03FC0809194029091950243
:1041E000009711F00397B9F58091E800877F8093DD
:1041F000E8008091E80082FF2AC08091F10080935E
:104200001E028091E8008B778093E8000C947E2357
:1042100080919002813AF9F48091E800877F809341
:10422000E8008091940290919502892B61F460E2FC
:104230008EEF91E070E00E948E228091E8008B77F3
:104240008093E800089560E080E090E0F3CF8091F3
:104250008F028111CECF089580919002813AD9F7D3
:104260008091940290919502892BA9F78091E800A2
:10427000877F8093E8008091E80080FFFCCF8091E9
:1042800014018093F1008091E8008E77BDCF80917A
:104290009002813201F78091940290919502892BCE
:1042A000D1F68091E800877F8093E8000E947E230A
:1042B00080919202809314010C94E71380919002F4
:1042C000813249F68091E800877F8093E8000E9460
:1042D0007E238091930280931F0208958091900223
:1042E000813A09F0B8CF8091E800877F8093E80099
:1042F0008091E80080FFFCCF80911F02C2CF84B77D
:10430000877F84BF0FB6F894A8958091600088617C
:1043100080936000109260000FBE80E8809361007F
:10432000109261000E94520F0E94CC230E94292407
:104330008091E20084608093E20078940E94B52628
:104340000E94560F8AE091E00E94FE0E80918F023B
:10435000853029F00E945E0F0E94920EF7CF0E94D6
:10436000441B80918D02882389F30E94731B88234C
:1043700069F30E942922EACF292F33272330310500
:1043800079F158F421303105F1F02230310519F17D
:1043900080E090E020E030E01AC02132310599F150
:1043A00022323105A9F76430710590F7FB01EE0F59
:1043B000FF1FEC5DFE4F20813181605E7E4FFB016F
:1043C000808190E004C082E190E021ED34E0FA01C8
:1043D0003183208308958DE690E024E634E0F7CF22
:1043E00099278130910561F028F0029789F6EEE275
:1043F000F4E002C0E0E6F4E0849190E09F01E7CFB2
:10440000EEE3F4E0F9CF6430710508F0C1CF660F38
:10441000771FFB01E45DFE4F2081318189E090E050
:10442000D6CF0895CF93C82F0E941122C0932002A7
:10443000CF91089580918F02843011F081E008952A
:1044400082E0089580912002811102C00C941A220A
:10445000089580E189BD82E189BD09B400FEFDCFE8
:104460008091D8008F7D8093D8008091E000826099
:104470008093E0008091E00081FDFCCF0895AF9231
:10448000BF92DF92EF92FF920F931F93CF93DF9330
:10449000EC018B017A010E949D23D82E811124C04A
:1044A000E114F10439F0F70180819181081B190BA7
:1044B000C80FD91FA12CB12C01151105A9F08091AD
:1044C000E80085FD22C08091E8008E778093E800A7
:1044D000E114F104A1F0F70180819181A80EB91EC9
:1044E000B182A08285E0D82E8D2DDF91CF911F91D2
:1044F0000F91FF90EF90DF90BF90AF9008950E94D2
:104500009D238823C9F2D82EEFCF89918093F100A3
:1045100001501109FFEFAF1ABF0ACECF20919602CA
:104520003091970226173707A8F06115710529F415
:104530002091E8002E772093E800FC0120E061152F
:10454000710551F4211108C08091E80082FF33C049
:1045500080E00895B901F1CF80918F028823B9F1ED
:104560008530B9F18091E80083FD2FC08091E8008B
:1045700082FDEACF8091E80080FFE1CF2091F30037
:104580008091F20090E0922B6115710519F088304E
:10459000910550F021E0089709F020E08091E800B3
:1045A0008E778093E800CBCF21912093F10061506A
:1045B00071090196E9CF80918F02882341F08530FF
:1045C00041F08091E80083FFBFCF81E0089582E051
:1045D000089583E00895209196023091970226175E
:1045E0003707A8F06115710529F42091E8002E77AE
:1045F0002093E800FC0120E06115710551F42111C0
:1046000008C08091E80082FF34C080E00895B901BD
:10461000F1CF80918F028823C1F18530C1F1809163
:10462000E80083FD30C08091E80082FDEACF8091F0
:10463000E80080FFE1CF2091F3008091F20090E04C
:10464000922B6115710519F08830910550F021E029
:10465000089709F020E08091E8008E778093E800C9
:10466000CBCF24912093F1003196615071090196CE
:10467000E8CF80918F02882341F0853041F080910E
:10468000E80083FFBECF81E0089582E0089583E0D3
:104690000895982F973028F08F708093E90081E07B
:1046A00008959093E900981751F07091EC002091D3
:1046B000ED005091F00021FD06C09F5FEBCF242F4D
:1046C000762F50E0F8CF3091EB003E7F3093EB0037
:1046D0003091ED003D7F3093ED003091EB00316083
:1046E0003093EB007093EC002093ED005093F000BA
:1046F0002091EE0027FDE1CF80E0089580919002A7
:1047000087FF13C08091E80082FF06C08091E80017
:104710008B778093E80004C080918F028111F2CFE3
:10472000089580918F028823D9F38091E80080FF5B
:10473000F8CF8091E8008E77ECCF2091E4003091A3
:10474000E50085E69091EC0090FD20C09091E80096
:1047500092FD20C090918F02992391F0953091F0B5
:104760009091EB0095FD10C04091E4005091E50060
:104770004217530739F381509A0121F784E00895D5
:1047800082E0089583E0089581E008959091E80023
:1047900090FFE0CF80E008950E943A240E944224D6
:1047A000E0EEF0E0808181608083E8EDF0E08081E0
:1047B0008F77808319BCA7EDB0E08C918E7F8C93AE
:1047C00080818F7E808310928E0208950F931F93B5
:1047D000CF93DF930E943A240E944224C8EDD0E098
:1047E00088818F77888388818068888388818F7D9E
:1047F000888319BC10928F0210928B0210928D0246
:1048000010928C0200EE10E0F80180818B7F808393
:1048100088818160888342E060E080E00E944923D3
:10482000E1EEF0E080818E7F8083E2EEF0E0808137
:1048300081608083808188608083F80180818E7FA1
:104840008083888180618883DF91CF911F910F9150
:104850000895E8EDF0E080818F7E8083E7EDF0E061
:1048600080818160808384E082BF81E080938E02BA
:104870000C94E623E8EDF0E080818E7F8083109237
:10488000E20008951092DA001092E10008951F925C
:104890000F920FB60F9211242F933F934F935F9374
:1048A0006F937F938F939F93AF93BF93EF93FF93F8
:1048B0008091E10082FF0BC08091E20082FF07C07F
:1048C0008091E1008B7F8093E1000E94B42680916B
:1048D000DA0080FF19C08091D80080FF15C0809158
:1048E000DA008E7F8093DA008091D90080FF94C037
:1048F00080E189BD82E189BD09B400FEFDCF81E080
:1049000080938F020E94A9208091E10080FF19C04E
:104910008091E20080FF15C08091E2008E7F80933D
:10492000E2008091E20080618093E2008091D800F3
:1049300080628093D80019BC85E080938F020E942A
:10494000BB208091E10084FF29C08091E20084FFB8
:1049500025C080E189BD82E189BD09B400FEFDCF9B
:104960008091D8008F7D8093D8008091E1008F7E68
:104970008093E1008091E2008F7E8093E20080913D
:10498000E20081608093E20080918B02882309F429
:1049900049C084E080938F020E94BC208091E10096
:1049A00083FF29C08091E20083FF25C08091E10050
:1049B000877F8093E10082E080938F0210928B02C8
:1049C0008091E1008E7F8093E1008091E2008E7FF4
:1049D0008093E2008091E20080618093E20042E0F7
:1049E00060E080E00E9449238091F000886080931D
:1049F000F0000E94BA20FF91EF91BF91AF919F917B
:104A00008F917F916F915F914F913F912F910F9077
:104A10000FBE0F901F90189519BC10928F020E9424
:104A2000B72072CF8091E30087FD02C081E0B2CF52
:104A300083E0B0CF1F920F920FB60F9211242F93E5
:104A40003F934F935F936F937F938F939F93AF9316
:104A5000BF93CF93EF93FF93C091E900CF70809104
:104A6000EC001092E9008091F000877F8093F000C5
:104A700078940E9456251092E9008091F000886099
:104A80008093F000C093E900FF91EF91CF91BF9127
:104A9000AF919F918F917F916F915F914F913F91D6
:104AA0002F910F900FBE0F901F9018951F93CF93CB
:104AB000DF93CDB7DEB7AA970FB6F894DEBF0FBE6F
:104AC000CDBFE0E9F2E08091F100819322E0E83986
:104AD000F207C9F70E94D2208091E80083FF46C008
:104AE0008091900290919102492F50E04A305105F7
:104AF00008F03CC0FA01E158FA4D0C94F9268925DA
:104B0000AF25B625AF25B6250D263026B625872636
:104B10009426803889F0823849F5809194028F700C
:104B2000873020F58093E9008091EB0085FB882792
:104B300080F91092E90006C080918C0290918D025C
:104B4000911182609091E800977F9093E8008093A4
:104B5000F1001092F1008091E8008E772DC0282F8F
:104B60002D7F21F48823D1F0823059F18091E80023
:104B700083FF0AC08091E800877F8093E8008091DE
:104B8000EB0080628093EB00AA960FB6F894DEBF2C
:104B90000FBECDBFDF91CF911F91089580919202FA
:104BA000813021F7933009F080E080938D021092DC
:104BB000E9008091E800877F8093E8000E947E23CF
:104BC000D5CF809192028111F2CF809194028F70A3
:104BD0002FEF280F263050F68093E9002091EB004C
:104BE00020FFE5CF933031F48091EB008062809319
:104BF000EB00DDCF9091EB0090619093EB0021E012
:104C000030E001C0220F8A95EAF72093EA00109263
:104C1000EA008091EB008860EACF8111A7CF109164
:104C200092021F778091E3008078812B8093E300CC
:104C30008091E800877F8093E8000E947E23809126
:104C4000E80080FFFCCF8091E30080688093E30060
:104C5000111104C082E080938F0288CF83E0FBCFE4
:104C60008058823008F082CF809192029091930216
:104C70008C3D23E09207A1F583E08A838AE2898351
:104C80004FB7F894DE01139620E03EE051E2E32FA7
:104C9000F0E050935700E49120FF03C0E295EF70DD
:104CA0003F5FEF708E2F90E0EA30C0F0C7968D9393
:104CB0009D932F5F243159F74FBF8091E800877F84
:104CC0008093E8006AE270E0CE0101960E948E2295
:104CD0008091E8008B778093E80048CFC096E7CFBB
:104CE0006091940270919502AE014F5F5F4F0E94F8
:104CF000BC21BC01892B09F439CF9091E800977F42
:104D00009093E80089819A810E94EB22E1CF80385C
:104D100009F02CCF8091E800877F8093E800809194
:104D20008B028093F10017CF811120CF90919202D6
:104D3000923008F01BCF8091E800877F8093E800D5
:104D400090938B020E947E2380918B02882311F026
:104D500084E005C08091E30087FDFACF81E0809375
:104D60008F020E94BE2002CF0895CF9380918F02C0
:104D7000882399F0C091E900CF708091EC0080FD0C
:104D80000EC080E0C82B1092E9008091E80083FDFE
:104D90000E945625CF70C093E900CF91089580E816
:104DA000F1CFAA1BBB1B51E107C0AA1FBB1FA6174F
:104DB000B70710F0A61BB70B881F991F5A95A9F7C4
:104DC00080959095BC01CD01089597FB072E16F4B0
:104DD000009407D077FD09D00E94D12607FC05D0AA
:104DE0003EF4909581959F4F0895709561957F4F02
:104DF0000895EE0FFF1F0590F491E02D0994F999A5
:104E0000FECF92BD81BDF89A992780B50895A6E19D
:104E1000B0E044E050E00C943927A8E1B0E042E073
:104E200050E00C943927262FF999FECF92BD81BD11
:104E3000F89A019700B4021639F01FBA20BD0FB6D8
:104E4000F894FA9AF99A0FBE08950396272F0E94B4
:104E500014270E941327252F0E941427242F0C9417
:104E600014270196272F0E9414270C941327DC0186
:104E7000CB01FC01F999FECF06C0F2BDE1BDF89A65
:104E8000319600B40D9241505040B8F70895F8940F
:024E9000FFCF52
:104E92000102D0012808140A321EB81F56202B2006
:104EA200F51FBB1F0134C697669490F73133323633
:104EB200404D36399F0552051C05E30476048F04E4
:044EC200A804C1047B
:00000001FF
