:100000000C94DD000C9405010C9405010C94050181
:100010000C9405010C9405010C9405010C94050148
:100020000C9405010C9405010C9475020C94E702E4
:100030000C9405010C9405010C9405010C94050128
:100040000C9405010C9405010C9405010C94050118
:100050000C9405010C9405010C9405010C943706D1
:100060000C9405010C9405010C9405010C940501F8
:100070000C9405010C9405010C9405010C940501E8
:100080000C9405010C9405010C9405010C940501D8
:100090000C9405010C9405010C9405010C940501C8
:1000A0000C9405010C9405010C940501D806DB069F
:1000B000CA06CE06D206FC06FC06FC06DF06E306F0
:1000C000E706ED06F106FC06F70600000000240036
:1000D00027002A002D003000080B00020202010058
:1000E000090400000102020000052400100105249B
:1000F000010101042402060524060001070581030D
:1001000010004009040100020A0000000705020275
:1001100040000007058302400000040309041201A7
:100120000002EF0201404F1B049200010102030193
:10013000537061726B46756E00537061726B4675D9
:100140006E2050726F204D6963726F0000000002D4
:1001500000090F0000030401000C00000000000073
:100160000000000000000000000004080201104030
:100170008040102040804080080204018040201010
:1001800002011080102040402000000000250028BF
:10019000002B002E003100040404040403040502B3
:1001A0000202020403020202020606060606060412
:1001B000040202020404F50BE50B11241FBECFEF6D
:1001C000DAE0DEBFCDBF11E0A0E0B1E0E4EBFBE19F
:1001D00002C005900D92AC32B107D9F721E0ACE234
:1001E000B1E001C01D92A43BB207E1F710E0CCEDF5
:1001F000D0E004C02197FE010E94810CCB3DD107C5
:10020000C9F70E94FD090C94CD0D0C940000CF930A
:10021000DF931F92CDB7DEB76983DC01ED91FC91CE
:100220000280F381E02D41E050E0BE016F5F7F4F1F
:1002300009950F90DF91CF91089583E08093E900B5
:100240008091F200882319F08AE38093E8000895F2
:10025000FC018485958597FD0BC09FB7F89482E0DB
:100260008093E9008091F2009FBF90E0019608958D
:100270009FB7F89482E08093E9008091F2009FBFDD
:1002800090E00895089580E090E00895409137014E
:1002900050913801209135013091360142175307B2
:1002A000B4F49091E8009570E1F39091E80092FD2C
:1002B00019C08093F1008091370190913801019627
:1002C0008F739927892B19F48EEF8093E800809122
:1002D000370190913801019690933801809337014E
:1002E00081E0089580E00895CF92DF92EF92FF922F
:1002F0000F931F93CF93DF931F92CDB7DEB7182FC5
:10030000062FE42E862F880F8E5F99830E94460168
:1003100083E00E944601F12EC12E9981D92E8C2DA9
:100320008F19801798F4F601E7FE02C0849101C08E
:1003300080810E944601182F80E00E94460181239F
:10034000FFEFCF1ADF0A8111EACF01C081E00F90E1
:10035000DF91CF911F910F91FF90EF90DF90CF90A1
:100360000895DF92EF92FF920F931F93CF93DF9345
:10037000D82E8A017B01E40EF51EEB01CE15DF05B8
:1003800071F0D7FE03C0FE01849101C088810E94F4
:10039000460121968111F2CF8FEF9FEF01C0C80176
:1003A000DF91CF911F910F91FF90EF90DF90089513
:1003B000615030F02091F100FC0120830196F8CFCC
:1003C000289884E680933D0108950E94D80990E022
:1003D00008950F931F93CF93DF931F92CDB7DEB78E
:1003E0008C01FC018485958597FF0EC0CE01019696
:1003F0000E94AE09019719F4298130E002C02FEF65
:100400003FEFF80135872487F801848595850F90A3
:10041000DF91CF911F910F910895CF93DF931F929A
:10042000CDB7DEB7FC018485958597FD05C02FEF1C
:100430003FEF358724870BC0CE0101960E94AE099D
:10044000019719F4898190E002C08FEF9FEF0F9020
:10045000DF91CF9108950F931F93CF93DF931F9256
:10046000CDB7DEB782E0898342E450E068ED70E00A
:1004700080E80E94B1010E94E909DC0112960D9109
:100480001C9113970115110569F0D801ED91FC91AC
:100490000280F381E02DBE016F5F7F4FC801099597
:1004A00097FF07C089810F90DF91CF911F910F9126
:1004B0000895F80100851185E5CFCF93DF93C0E063
:1004C000D0E08091410190914201C817D90730F4E2
:1004D00040E050E0BA01CE010E940C072196CE31D7
:1004E000D10579F7DF91CF9108951F920F920FB642
:1004F0000F9211248F939F938091E1009091E100DE
:10050000937F9093E10083FF0FC01092E90091E088
:100510009093EB001092EC0092E39093ED00109218
:100520003E0198E09093F00082FF20C093E090930A
:10053000E9009091F200992319F09AE39093E80072
:1005400090913B01992339F090913B019150909308
:100550003B01992389F190913D01992339F09091C4
:100560003D01915090933D01992341F184FF10C0CA
:100570008091E2008E7E81608093E2008091E100B4
:100580008F7E8093E10080913C018E7E806111C05E
:1005900080FF16C08091E2008E7E80618093E20031
:1005A0008091E1008E7E8093E10080913C018E7EFF
:1005B000816080933C0104C05D9ACDCF289AD6CF4C
:1005C0009F918F910F900FBE0F901F9018951F92C3
:1005D0000F920FB60F921124CF92DF92EF92FF92FB
:1005E0000F931F932F933F934F935F936F937F933B
:1005F0008F939F93AF93BF93EF93FF93CF93DF932B
:10060000CDB7DEB76C97DEBFCDBF1092E900809109
:10061000E80083FFEDC168E0CE0145960E94D80155
:1006200082EF8093E8008D8987FF05C09091E800F4
:1006300090FFFCCF03C09EEF9093E800982F907638
:1006400009F0C6C09E892F89188D91110CC0803881
:1006500029F480913A018093F10002C01092F100D8
:100660001092F10048C1422F50E0512B913051F4CB
:10067000811141C14130510509F03DC180913A01DC
:100680008D7F0BC0933061F4811135C1413051052C
:1006900009F031C180913A01826080933A012BC107
:1006A000953041F48091E80080FFFCCF20682093D2
:1006B000E30021C1963009F05FC0EB8CFC8C1092F6
:1006C000E9001092380110923701123091F5109222
:1006D0003601109235010E942B0299E0BE016F5F36
:1006E0007F4FDB01E92F1D92EA95E9F799831A8381
:1006F00091E09E8390EA98879AEF9987209137013D
:1007000030913801275F3F4F3C832B838D831092BC
:10071000E9001092380110923701F0923601E09210
:10072000350149E050E080E00E94B1010E942B02B7
:10073000E2C0F0923601E09235010E94E909DC0145
:100740001296ED90FC901397E114F10409F4C0C0E7
:10075000D701ED91FC910480F581E02DBE016B5E27
:100760007F4FC7010995009719F00CF0C4C0C7C0AE
:10077000F701E084F184E8CF973009F4C0C09830E5
:1007800021F481E08093F100B6C0993009F0B3C044
:10079000837009F0B4C0E3E1F1E081E021E036E3E9
:1007A0009081992361F08093E9002093EB0091916F
:1007B0009093EC003093ED008F5F873089F78EE7E0
:1007C0008093EA001092EA008F8980933E0193C0E3
:1007D0008B8D9C8D1092E900109238011092370198
:1007E0009093360180933501898D811156C08E8991
:1007F0009D89913A59F4813209F081C047E050E077
:1008000064E071E080E00E94B10175C0913209F0AE
:1008100076C0833289F4888D90E0982F88272F89BD
:10082000822BA0E0B0E08093000190930101A0939F
:100830000201B09303015FC0803269F48091E80047
:1008400082FFFCCF67E084E091E00E94D8018BEF4B
:100850008093E80006C0823209F04DC08F898093F2
:100860000B0180913901882319F0EEEFFAE002C004
:10087000E0E0F8E08091040190910501A09106016B
:10088000B0910701803B9440A105B10509F07BC000
:1008900080910B0180FF93C076C00E94E909DC01C2
:1008A00012960D911C9113970115110541F1D80174
:1008B000ED91FC910190F081E02DBE016B5E7F4FC8
:1008C000C8010995811117C0F80100851185ECCF89
:1008D000113009F44EC0133091F48F89882309F444
:1008E00045C0823081F440E862E189E391E00E94F2
:1008F0007401882321F08EEF8093E80079C081E2B3
:100900008093EB0075C0813029F440E868E080E313
:1009100091E0EDCF833099F70E94E909DC0112964E
:10092000ED90FC9013978E010F5F1F4F6801E1144B
:10093000F10479F0D701ED91FC910680F781E02D6B
:10094000B801C7010995080F111DF701E084F18472
:10095000EECFD8011C92F60101900020E9F7319703
:10096000BF016C197D0940E0C601C1CF6AE171E0A9
:1009700002C06EE171E06115710509F2FB0144915D
:1009800050E080E840CF0FB6F894A89580916000C1
:10099000886180936000109260000FBEA895EE3FC2
:1009A0002AE0F20739F08091FE0A9091FF0A9183C4
:1009B0008083A1CF1092FF0A1092FE0A9CCFEE3FD7
:1009C0008AE0F80731F0808191819093FF0A80934B
:1009D000FE0A87E797E7918380839BE088E10FB663
:1009E000F894A895809360000FBE9093600083CF29
:1009F0006C960FB6F894DEBF0FBECDBFDF91CF91DE
:100A0000FF91EF91BF91AF919F918F917F916F91E6
:100A10005F914F913F912F911F910F91FF90EF9018
:100A2000DF90CF900F900FBE0F901F901895CF932F
:100A3000DF9390E0FC01E659FE4F2491FC01E9565A
:100A4000FE4F8491882361F190E0880F991FFC018B
:100A5000E653FF4FC591D491FC01E757FE4FA59196
:100A6000B491611109C09FB7F894888120958223C1
:100A70008883EC912E230BC0623061F49FB7F89409
:100A80003881822F809583238883EC912E2B2C93A1
:100A90009FBF06C08FB7F894E8812E2B28838FBFA5
:100AA000DF91CF9108953FB7F894809131019091F3
:100AB0003201A0913301B091340126B5A89B05C045
:100AC0002F3F19F00196A11DB11D3FBFBA2FA92FCD
:100AD000982F8827820F911DA11DB11DBC01CD014A
:100AE00043E0660F771F881F991F4A95D1F7089535
:100AF0008F929F92AF92BF92CF92DF92EF92FF922E
:100B00006B017C010E9453054B015C01C114D104AF
:100B1000E104F104F1F00E945305DC01CB018819D6
:100B20009909AA09BB09883E9340A105B10570F354
:100B300021E0C21AD108E108F10888EE880E83E0AE
:100B4000981EA11CB11CC114D104E104F10419F7D1
:100B5000DDCFFF90EF90DF90CF90BF90AF909F9050
:100B60008F9008958F929F92AF92BF92CF92DF9213
:100B7000EF92FF920F931F93CF93DF935C016B0172
:100B80007A0180910B01882309F45BC080913E01BA
:100B9000882309F456C080913C0180FF05C08091F4
:100BA000E00082608093E000E70110E00AEF83E05C
:100BB000882E9AE3992E2097D9F10E94D8098111A5
:100BC0000AC0015009F43DC061E070E080E090E0AF
:100BD0000E947805F0CF282F30E0C217D3070CF41D
:100BE0008C2F4FB7F8948092E9009091E80095FF20
:100BF0001DC0282F30E0C21BD30BF601982F915057
:100C000020F081918093F100FACFC20ED31E112300
:100C100019F09092E80009C08091E80085FD06C0B7
:100C20009092E80011E0209709F010E04FBFC3CF89
:100C30001111C3CF5D9884E680933B011E141F04FD
:100C400044F081E090E0F5019383828380E090E0BE
:100C500001C0C701DF91CF911F910F91FF90EF90DD
:100C6000DF90CF90BF90AF909F908F9008951F928C
:100C70000F920FB60F9211242F933F938F939F9350
:100C8000AF93BF9380912D0190912E01A0912F01E0
:100C9000B091300130912C0126E0230F2D3720F444
:100CA0000296A11DB11D05C029E8230F0396A11DC1
:100CB000B11D20932C0180932D0190932E01A093C0
:100CC0002F01B09330018091310190913201A091B8
:100CD0003301B09134010196A11DB11D8093310102
:100CE00090933201A0933301B0933401BF91AF913F
:100CF0009F918F913F912F910F900FBE0F901F905A
:100D00001895CF92DF92EF92FF920F931F93CF939C
:100D1000DF936C017A018B01C0E0D0E0CE15DF05D6
:100D200089F0D8016D918D01D601ED91FC91019072
:100D3000F081E02DC6010995892B11F47E0102C0D6
:100D40002196ECCFC701DF91CF911F910F91FF90BA
:100D5000EF90DF90CF9008950E94C80D90E0FC01C5
:100D6000E45BFE4F4491FC01E659FE4F2491FC01E7
:100D7000E956FE4F8491882309F44DC04423E1F1E4
:100D800050E0FA013197EF30F105B0F5EA5AFF4F24
:100D90000C94810C909180009F7707C09091800007
:100DA0009F7D03C090918000977F9093800024C026
:100DB00094B59F7702C094B59F7D94BD1DC090915E
:100DC00090009F7707C0909190009F7D03C0909105
:100DD0009000977F909390000FC09091C0009F77F4
:100DE00003C09091C0009F7D9093C00005C090917A
:100DF000C200977F9093C200E82FF0E0EE0FFF1F34
:100E0000E757FE4FA591B4918FB7F894EC912095D8
:100E10002E232C938FBF08958F929F92AF92BF92F3
:100E2000CF92DF92EF92FF924B01AA24BB24E82DD0
:100E3000C52ED62EE72EFF24FC2D342F20914601FF
:100E4000222361F0829E40011124E92DC29E60019F
:100E50001124FD2D429FD00111243B2FF0904C0115
:100E6000E0904901A0914701B0914801FE1008C0EF
:100E7000AC01440F551F840F951F8A0F9B1F14C090
:100E8000880F991F880F991F8A0F9B1F472F55277F
:100E900066277727DC01AF0DB11D222321F0429F89
:100EA000A0011124452F4C9320914901DC01A20F90
:100EB000B11DEC9320914A01DC01A20FB11DFC93FE
:100EC00020914B01FC01E20FF11D3083FF90EF9068
:100ED000DF90CF90BF90AF909F908F9008950F9329
:100EE0001F93CF93DF93CDB7DEB729970FB6F89452
:100EF000DEBF0FBECDBF8091470190914801892B85
:100F000009F4DBC10E94530500914D0110914E017F
:100F100020914F0130915001DC01CB01801B910BDE
:100F2000A20BB30B8C329140A105B10558F3F89494
:100F300080914301909144019A838983A091470154
:100F4000B0914801FD0131968C91898780913F01D4
:100F5000A0915101B0915201882309F473C11B8201
:100F6000AB32B10509F058C09BB180915301982B69
:100F700098879BB1809589238F838F818C83898506
:100F800087FF02C088858C8358856F8149853C81A5
:100F90002B8189819A815BB9262F3BB900C046FD20
:100FA000252F6BB900C05BB9362F2BB900C045FDAA
:100FB000352F6BB900C05BB9262F3BB900C044FD8B
:100FC000252F6BB900C05BB9362F2BB900C043FD8C
:100FD000352F6BB900C05BB9262F3BB900C042FD6D
:100FE000252F6BB900C05BB9362F2BB900C041FD6E
:100FF000352F6BB900C05BB9262F3BB900C040FD4F
:10100000252F6BB901975BB9362F2BB9419147FD5D
:10101000352F6BB901F612C1A532B10509F058C0E0
:1010200095B180915301982B988795B1809589232C
:101030008F838F818C83898587FF02C088858C830D
:1010400058856F8149853C812B8189819A8155B969
:10105000262F35B900C046FD252F65B900C055B90A
:10106000362F25B900C045FD352F65B900C055B9EB
:10107000262F35B900C044FD252F65B900C055B9EC
:10108000362F25B900C043FD352F65B900C055B9CD
:10109000262F35B900C042FD252F65B900C055B9CE
:1010A000362F25B900C041FD352F65B900C055B9AF
:1010B000262F35B900C040FD252F65B9019755B9D8
:1010C000362F25B9419147FD352F65B901F6B6C0D8
:1010D000A832B10509F058C098B180915301982BFE
:1010E000988798B1809589238F838F818C83898598
:1010F00087FF02C088858C8358856F8149853C8134
:101100002B8189819A8158B9262F38B900C046FDB4
:10111000252F68B900C058B9362F28B900C045FD41
:10112000352F68B900C058B9262F38B900C044FD22
:10113000252F68B900C058B9362F28B900C043FD23
:10114000352F68B900C058B9262F38B900C042FD04
:10115000252F68B900C058B9362F28B900C041FD05
:10116000352F68B900C058B9262F38B900C040FDE6
:10117000252F68B9019758B9362F28B9419147FDF5
:10118000352F68B901F65AC0D19709F08BC091B3D9
:1011900080915301982B988791B3809589238F83F1
:1011A0008F818C83898587FF02C088858C835885D1
:1011B0006F8149853C812B8189819A8151BB262F82
:1011C00031BB00C046FD252F61BB00C051BB362F8F
:1011D00021BB00C045FD352F61BB00C051BB262F90
:1011E00031BB00C044FD252F61BB00C051BB362F71
:1011F00021BB00C043FD352F61BB00C051BB262F72
:1012000031BB00C042FD252F61BB00C051BB362F52
:1012100021BB00C041FD352F61BB00C051BB262F53
:1012200031BB00C040FD252F61BB019751BB362F5C
:1012300021BB419147FD352F61BB01F649873C83B6
:101240002B832EC09C9180915301982B98879C9161
:10125000809589238F838F818E8388E08D83588545
:101260006F8149853D812E8189819A815C9347FDFB
:10127000252F2C93262F3A9531F0441F6C9300C0F4
:1012800000C000C0F3CF6C93000038E0419101979B
:1012900069F7B0935201A093510149873D832E8392
:1012A0009A83898378940E94530560934D017093CB
:1012B0004E0180934F019093500129960FB6F894F8
:1012C000DEBF0FBECDBFDF91CF911F910F9108956B
:1012D000E0914101F09142018E179F07F0F53091A6
:1012E0004601332361F0639FB0011124672F439FB0
:1012F000A0011124452F239F90011124232F309109
:101300004C0150914901E0914701F091480135139A
:1013100008C0DC01AA0FBB1F8A0F9B1F8E0F9F1FE7
:101320000AC0880F991F880F991F8E0F9F1FFC01FD
:10133000E30FF11D108230914901FC01E30FF11D13
:10134000608330914A01FC01E30FF11D408330912D
:101350004B01FC01E30FF11D20830895FC018091F6
:101360003E01811103C08FEF9FEF08959FB7F8945E
:1013700082E08093E9002091F20030E0121613061B
:1013800014F421E030E02115310559F0289884E665
:1013900080933D018091F10080838091F200882349
:1013A00019F09FBFC90108958BE68093E800F9CF3B
:1013B0002FB7F89483E08093E9009091E800892F9B
:1013C000807295FF04C09091F20080E4891B2FBFCA
:1013D00008958091580181110DC082E080935401DD
:1013E00084E080935501109257011092560181E0DC
:1013F0008093580184E591E00895789484B58260E3
:1014000084BD84B5816084BD85B5826085BD85B5A8
:10141000816085BD80916E00816080936E00109226
:1014200081008091810082608093810080918100A1
:101430008160809381008091800081608093800032
:1014400080919100826080939100809191008160F1
:1014500080939100809190008160809390008091B2
:10146000C10084608093C1008091C100826080933C
:10147000C1008091C10081608093C1008091C30050
:1014800081608093C3008091C00082608093C0001F
:101490008091C20081608093C20080917A00846054
:1014A00080937A0080917A00826080937A008091A4
:1014B0007A008E7F80937A0080917A008068809392
:1014C0007A0010923E0110923A0110923C018091F4
:1014D000D70081608093D70080EA8093D80089B5D7
:1014E0008F7E89BD89B5826089BD09B400FEFDCFBC
:1014F00061E070E080E090E00E9478058091D80083
:101500008F7C80618093D8008091E000807F809301
:10151000E0008091E1008E7E8093E1008DE0809379
:10152000E200559A209AEEEFFFE7859194918B3F68
:101530009C4D19F481E0809339018091450187FD2C
:1015400007C061E00E941705809145010E94AE0628
:1015500081E0809340010E945D020E946F0700ECD1
:1015600010E096E0A92EC0E0D0E088EFB82EC12CA4
:10157000D12C7E01FF2496012E0D3F1DA29EC0019D
:10158000A39E900D1124B8010E946D0CAC014F3147
:1015900051055CF4440F440F440F50E060E070E0EC
:1015A000762F652F542F44273FC04F33510564F4E5
:1015B0004F514B9D402D1124415050E060E070E0B0
:1015C000BA015527442709C08F3548F44F53440FBB
:1015D000440F440F50E060E070E05F6F26C08F372B
:1015E00068F44F554B9D402D1124415050E060E070
:1015F00070E0762F652F542F44270CC08F3960F48C
:101600004F57440F440F440F50E060E070E0BA01C0
:10161000552744274F6F09C04F594B9D402D11242A
:10162000415050E060E070E06F6F80914101909117
:101630004201C816D90618F4C6010E940C078FEFA4
:10164000C81AD80A2EE1C216D10409F094CF0E941C
:101650006F0764E670E080E090E00E9478052196D4
:10166000CC3281E0D80709F082CF3AE0832E912C6A
:101670009EEFC92EDD24DA94EE24EA94FE2CC0E01D
:10168000D0E00E945D0222E840E06BE4CE010E94BF
:1016900068092FEFE216F20631F020E240E062E145
:1016A000C7010E946809219620E240E062E1CE0174
:1016B0000E946809D7FC06C020E140E069E0C6014D
:1016C0000E94680920E140E069E0CE0101960E9495
:1016D00068090E946F0764EF70E080E090E00E946C
:1016E00078058FEFE81AF80A2FEFC21AD20ACE3126
:1016F000D10539F64AE1E42EF12CCCE1D0E00E948C
:101700005D0222E840E06BE4CE010E946809219767
:1017100020E240E062E1CE010E94680920E240E060
:1017200062E1CE0102960E9468098FEFE816F80682
:1017300031F020E140E069E0C7010E94680920E142
:1017400040E069E0CE0103960E9468090E946F079D
:1017500064EF70E080E090E00E94780521E0E21AFA
:10176000F108209761F681E0881A910809F080CF8E
:1017700084E1E82EF12CC0E0D0E00E945D0280916F
:10178000410190914201C817D90738F44AE95AEF4C
:1017900060E070E0CE010E940C070E946F0764E6D3
:1017A00070E080E090E00E9478052196CE31D1056E
:1017B00021F721E0E21AF108F1F680E090E0892BB0
:1017C00009F4D1CE0E940000CCCE809147019091C7
:1017D0004801009711F00E94300D8091450187FD6E
:1017E00003C060E00C9417050895109263011092F5
:1017F000620188EE93E0A0E0B0E0809364019093F2
:101800006501A0936601B09367018DE191E090932B
:101810006101809360018FEF9FEF90936D01809342
:101820006C01109240011092460110924D011092ED
:101830004E0110924F011092500181E080934C01B3
:101840008093490110924A0192E090934B0180935A
:101850003F018AE590E090934401809343010E9408
:101860009B0C9093480180934701009761F02AE513
:10187000FC0111922A95E9F78EE190E090934201E4
:101880008093410108C010924401109243011092CC
:1018900042011092410189E080934501809140010D
:1018A000882339F061E089E00E94170589E00E94F1
:1018B000AE06E0EAF1E0E491F0E0EE0FFF1FE7573B
:1018C000FE4F859194919093520180935101E3E7EB
:1018D000F1E0E491E0935301089597FB072E16F48D
:1018E000009407D077FD09D00E94870C07FC05D033
:1018F0003EF4909581959F4F0895709561957F4F27
:101900000895EE0FFF1F0590F491E02D0994AA1B96
:10191000BB1B51E107C0AA1FBB1FA617B70710F0DA
:10192000A61BB70B881F991F5A95A9F7809590950C
:10193000BC01CD010895CF93DF938230910510F45F
:1019400082E090E0E091B201F091B30120E030E05C
:10195000C0E0D0E0309711F140815181481759071C
:10196000C0F04817590761F482819381209719F0DC
:101970009B838A832BC09093B3018093B20126C0CE
:101980002115310519F04217530718F49A01BE01C9
:10199000DF01EF010280F381E02DDCCF211531055D
:1019A00009F1281B390B2430310590F412968D91E2
:1019B0009C9113976115710521F0FB01938382833C
:1019C00004C09093B3018093B201FD01329644C0EC
:1019D000FD01E20FF31F81939193225031092D9362
:1019E0003C933AC02091B0013091B101232B41F4D6
:1019F00020910E0130910F013093B1012093B0017D
:101A000020910C0130910D012115310541F42DB7C4
:101A10003EB74091100150911101241B350BE0910C
:101A2000B001F091B101E217F307A0F42E1B3F0BB8
:101A30002817390778F0AC014E5F5F4F2417350740
:101A400048F04E0F5F1F5093B1014093B001819356
:101A5000919302C0E0E0F0E0CF01DF91CF910895D3
:101A60000F931F93CF93DF93009709F48CC0FC0171
:101A70003297138212820091B2011091B3010115C5
:101A8000110581F420813181820F931F2091B001D3
:101A90003091B1012817390779F5F093B101E0933E
:101AA000B00171C0D80140E050E0AE17BF0750F45C
:101AB00012962D913C911397AD012115310509F135
:101AC000D901F3CF9D01DA013383228360817181D3
:101AD000860F971F8217930769F4EC0128813981DB
:101AE000260F371F2E5F3F4F318320838A819B81D2
:101AF00093838283452B29F4F093B301E093B201E1
:101B000042C01396FC93EE931297ED0149915991BF
:101B10009E01240F351FE217F30771F48081918134
:101B2000840F951F029611969C938E9382819381C8
:101B300013969C938E931297E0E0F0E0D8011296F2
:101B40008D919C911397009719F0F8018C01F6CFB5
:101B50008D919C9198012E5F3F4F820F931F209192
:101B6000B0013091B1012817390769F4309729F491
:101B70001092B3011092B20102C01382128210932C
:101B8000B1010093B001DF91CF911F910F910895A2
:101B900081E090E0F8940C94CD0D10E0CCEDD0E015
:101BA00004C0FE010E94810C2196CD3DD107C9F7EA
:041BB000F894FFCFD7
:101BB400FFFFFFFF00E10000000000000000B4018F
:101BC400800000C18081000000000000000701B215
:0C1BD40005E5011D0128010D02E90100DA
:00000001FF
